:100000000C94B5000C94D2000C94D2000C94D20045
:100010000C94D2000C94D2000C94D2000C94D20018
:100020000C9495050C94D2000C94D2000C94D20040
:100030000C94D2000C94D2000C94D2000C94340492
:100040000C94D2000C94D2000C94D2000C94D200E8
:100050000C94D2000C942F110C94D2000C94D2006A
:100060000C94D2000C94D2006E616E00696E660032
:1000700000407A10F35A00A0724E18090010A5D45F
:10008000E80000E87648170000E40B54020000CABC
:100090009A3B000000E1F505000080969800000002
:1000A00040420F000000A086010000001027000061
:1000B0000000E803000000006400000000000A00E7
:1000C000000000000100000000002C76D888DC67EA
:1000D0004F0823DFC1DFAE59E1B1B796E5E3E45342
:1000E000C63AE651997696E8E6C28426EB898C9B5F
:1000F00062ED407C6FFCEFBC9C9F40F2BAA56FA5FF
:10010000F490055A2AF75C936B6CF9676DC11BFC80
:10011000E0E40D47FEF520E6B500D0ED902E03009B
:10012000943577050080841E080000204E0A0000E8
:1001300000C80C333333330F986E12831141EF8DA7
:100140002114893BE65516CFFEE6DB18D1844B38E7
:100150001BF77C1D901DA4BBE424203284725E2218
:100160008100C9F124ECA1E53D2711241FBECFEF8A
:10017000D8E0DEBFCDBF12E0A0E0B1E0E0E3F3E302
:1001800002C005900D92AC32B107D9F715E0ACE290
:10019000B2E001C01D92A33CB107E1F70E948908BB
:1001A0000C9496190C94000084B1807F84B92C9A29
:1001B0002D9882E08A95F1F700C05F9A92E09A95B7
:1001C000F1F700C083B18295807F92E09A95F1F7B4
:1001D00000C05F9895E09A95F1F700005F9A92E071
:1001E0009A95F1F700C093B192E09A95F1F700C0AB
:1001F0005F9895E09A95F1F7000087FDDECF2C9887
:1002000084B18F6084B90895282F22952F708F7044
:10021000662311F42D9801C02D9A92E09A95F1F77A
:1002200000C05F9A95B1907F922B95B995E09A9511
:10023000F1F700005F9895E09A95F1F700005F9A5A
:1002400095B1907F982B95B985E08A95F1F70000DC
:100250005F9895E09A95F1F700000E94D400089508
:10026000DF93CF930F92CDB7DEB72FEF36E741E0A4
:10027000215030404040E1F700C0000094B19F6041
:1002800094B9579A259A249A95B1907F95B95F9819
:100290002C982D9800C000C000005F9A299A35E084
:1002A0003A95F1F700005F9845E04A95F1F70000B4
:1002B00089830E94D40089818C6060E00E940401DF
:1002C00088E260E00E9404010F90CF91DF910895D1
:1002D000EF92FF92CF93DF93E82EE7017E01F92E94
:1002E000E70103C061E00E94040189918823D1F7EE
:1002F000DF91CF91FF90EF900895EF92FF920F93CF
:100300001F93DF93CF9300D000D00F92CDB7DEB70D
:100310009B01FE01319645E0DF011D924A95E9F708
:10032000FE0136960AE010E005C0B8010E94B11740
:100330008293CB010097C9F7BFEF2F3F3B0751F4E2
:10034000FE01319680E090E001C0019621912223C8
:10035000E1F304C085E090E0821B930B8E010F5FF8
:100360001F4F080F191F7C010AC0F80181918F01EE
:10037000805D61E00E9404010894E11CF11CF5E03D
:10038000EF16F10494F30F900F900F900F900F90D1
:10039000CF91DF911F910F91FF90EF9008958832D8
:1003A00030F461118064806860E00E940401089567
:1003B000CF93DF93EA010E94CF01CE010E94680132
:1003C000DF91CF9108951092B9008CE08093B8002E
:1003D0009091B80081E09B3008F480E0089584EAB1
:1003E0008093BC008091BC0087FFFCCF8091B90056
:1003F000887F883041F09091B900987F81E09031FA
:1004000019F480E0089580E0089594EA9093BC0088
:100410009091BC0097FFFCCF9091B900987F9830E5
:1004200011F0903191F48093BB0084E88093BC007C
:100430008091BC0087FFFCCF9091B900983139F0D2
:1004400081E0983429F480E0089582E0089580E006
:10045000089584EA8093BC008091BC0087FFFCCFA4
:100460009091B900987F81E0903109F480E008957F
:1004700080FF02C040E401C048E18093BB0084E8F3
:100480008093BC008091BC0080648093BC0080910C
:10049000BC0087FFFCCF2091B90030E0287F30708E
:1004A00050E081E02417350709F480E0089580FFCB
:1004B00002C048E401C040E28093BB0084E880931E
:1004C000BC008091BC0087FFFCCF2091B90030E0D8
:1004D000287F307050E081E02417350709F480E070
:1004E00008958093BB0084EC8093BC008091BC0095
:1004F00087FFFCCF8091B900887F883241F09091CE
:10050000B900987F81E0983219F480E0089580E086
:1005100008958093BB0084E88093BC008091BC0068
:1005200087FFFCCF9091B900987F81E0903309F468
:1005300080E0089584EC8093BC008091BC0087FF2C
:10054000FCCF8091B900887F803519F48091BB0081
:1005500008958EE7089584E88093BC008091BC00E4
:1005600087FFFCCF8091B900887F883519F480918E
:10057000BB0008958EE7089584E98093BC008091C4
:10058000BC0084FDFCCF08951F93CF93DF9380EAD6
:100590000E940502182F80E00E947102182B80E053
:1005A0000E947102812B813041F0C0E0D0E00AC08E
:1005B0008FEF0E947102813021F40E94BC0281E021
:1005C00006C02196D7FFF4CF0E94BC0280E0DF91E5
:1005D000CF911F910895CF92DF92EF92FF920F93E8
:1005E0001F93DF93CF9300D0CDB7DEB7082F6B01F9
:1005F000F42EE22E5A8399830E94EF01182FEFED1B
:10060000FEE23197F1F700C0000080EA0E94380254
:10061000182B9981892F0E947102182B802F0E941C
:100620007102182B0E942902182B81EA0E943802BD
:10063000182B5A811123B1F00E94BC021EC0EE207B
:1006400019F00E949A0202C00E94AB02F801808356
:100650000F5F1F4FF80180818E3731F40E94BC027A
:100660001EE70BC00F2D152F802F8F1990E08C15D2
:100670009D0528F30E94BC021C2D812F0F900F9026
:10068000CF91DF911F910F91FF90EF90DF90CF906E
:1006900008959695982F88279795879560E870E03C
:1006A00040E050E020E00E94EB0280E090E00895FE
:1006B0001F9380EA0E940502882321F00E94BC0259
:1006C0008DE712C080E00E947102182F80E00E9426
:1006D0007102812B21F00E94BC0281E005C080E004
:1006E0008F5F8038E9F780E01F910895DF92EF92E5
:1006F000FF920F931F93DF93CF930F92CDB7DEB787
:10070000162F042FE22EF82E882311F480EA01C060
:1007100088EA79830E9405027981882351F4872F22
:100720000E947102D82E812F0E9471028D29813082
:1007300019F40E94BC0219C0EE2021F0802F0E9403
:10074000710203C0802F0E948902813021F40E942F
:10075000BC0281E00DC00E94BC028FE19EE40197C3
:10076000F1F700C00000FF2011F08DE701C080E02C
:100770000F90CF91DF911F910F91FF90EF90DF903D
:100780000895AF92BF92DF92EF92FF920F931F9363
:10079000CF93DF935B01EA01DD247C0100E010E0F0
:1007A0000FC0EC0FFD1FC801B701408121E00E947E
:1007B0007603882321F00E94BC0281E007C0D39415
:1007C000ED2DF0E0EA15FB0560F380E0DF91CF91BD
:1007D0001F910F91FF90EF90DF90BF90AF90089521
:1007E000EF92FF920F931F93DF93CF930F92CDB7AA
:1007F000DEB7162FE42E882319F440EAF42E02C047
:1008000038EAF32E8F2D79830E940502798188239F
:10081000D9F4872F0E947102082F812F0E94710244
:10082000082B0E942902082B8F2D8F5F0E9438020F
:10083000802B813049F0EE2019F00E949A0202C00C
:100840000E94AB028E3721F40E94BC028DE704C0E7
:1008500089830E94BC0289810F90CF91DF911F9103
:100860000F91FF90EF9008951F920F920FB60F9285
:1008700011242F933F938F939F93EF93FF93809136
:10088000F903882309F446C12091F90331E030933C
:10089000F90389B18093AB058091AB058470809397
:1008A000AA058091AB0580718093EB038091AB0525
:1008B00088708093B5058091B5058823B9F480913F
:1008C000B405882399F480913D0290913E020196EF
:1008D00090933E0280933D0280913D0290913E02B2
:1008E00085369105B8F13093B40534C08091B505D3
:1008F000882311F01092B40580913D0290913E0240
:100900008730910528F410923E0210923D0222C0D9
:1009100080913D0290913E028830910568F080916F
:100920003D0290913E028436910530F410923E02D1
:1009300010923D0286E00CC080913D0290913E02F3
:100940008536910538F010923E0210923D0287E004
:100950008093BE058091AA05882389F4809139028D
:1009600090913A02019690933A02809339028091D5
:10097000390290913A028432910578F007C0809153
:10098000390290913A028730910518F082E0809305
:10099000BE0510923A02109239028091EB0388232F
:1009A00089F480913B0290913C02019690933C0225
:1009B00080933B0280913B0290913C0284329105EE
:1009C00078F007C080913B0290913C0287309105FE
:1009D00018F084E08093BE0510923C0210923B0216
:1009E0008091AA05882371F48091EB03882351F448
:1009F00080913F0290914002019690934002809333
:100A00003F020EC080913F029091400287309105D5
:100A100018F088E08093BE051092400210923F02C9
:100A20008091F0039091F1038336910550F4809109
:100A3000F0039091F10301969093F1038093F003FA
:100A40005FC01092F1031092F0038091F2038B3398
:100A500048F48091F2038F5F8093F20381E08093EA
:100A6000EA034EC01092F2038091F3038B3330F40B
:100A70008091F3038F5F8093F3033FC01092F303E1
:100A80008091F403873130F48091F4038F5F809379
:100A9000F40333C01092F4039091F503E091F60350
:100AA000F0E0E15EFD4F8081981790F48091F503AE
:100AB0008F5F8093F5038091F5038D31D9F4809198
:100AC000F6038230B9F48091F703837099F01BC06C
:100AD00081E08093F5039091F6039C3020F480919F
:100AE000F6038F5F14C08093F6038091F7038F5F46
:100AF0008093F70381E08093E40381E080934902CF
:100B00002093F90307C081E08093F50383E080938D
:100B1000F603F0CFFF91EF919F918F913F912F912D
:100B20000F900FBE0F901F9018951F920F920FB647
:100B30000F9211242F933F938F939F938091F903EA
:100B4000833000F12091F903809144029091450295
:100B500033E08032930750F4809144029091450233
:100B6000019690934502809344020CC01092450276
:100B7000109244025E988091B100887F8093B1000A
:100B80002093F9039F918F913F912F910F900FBE6A
:100B90000F901F9018950895882319F080E00E9407
:100BA000300181E060E00E9404018BE060E040E001
:100BB00051E00E94D80180E061E046E051E00E94EF
:100BC000D8018FED61E00E94040185E061E04BE017
:100BD00051E00E94D80188E061E04EE051E00E94BF
:100BE000D801089585B5856085BD84B5826084BDD2
:100BF000EEE6F0E08081846080838CE987BD089513
:100C0000E0EBF0E0808182608083E0E7F0E08081CB
:100C1000846080838CE98093B300089581E08093A1
:100C2000E4038093FC03569A8CE18BB981E00E9427
:100C3000CC050E94F2050E94000678940895AF92B8
:100C4000BF92CF92DF92EF92FF920F931F9360912A
:100C500078007091790080E090E00E94781620E0A2
:100C600030E040EA50E40E942E1720E030E048E4F3
:100C700058E40E94DF1520E030E040E250E40E949A
:100C800077159B01AC012093B6053093B7054093CF
:100C9000B8055093B9056091B6057091B70580917C
:100CA000B8059091B905E090B605F090B7050091B0
:100CB000B8051091B90520E030EC4FE055E40E94F2
:100CC0002E1720E030EE4BEA55E40E9476155B01CA
:100CD0006C0160E070E080EA90E4A80197010E9456
:100CE00076159B01AC01C601B5010E94DF159B0181
:100CF000AC0120933102309332024093330250937F
:100D000034026091310270913202809133029091ED
:100D1000340220E030E048EC52E40E94761525ECE5
:100D200033E946EC5EE30E94DF151F910F91FF90BF
:100D3000EF90DF90CF90BF90AF9008958091A8057D
:100D4000882319F0813081F40BC010927C008091CF
:100D50007C00816080937C0081E08093A8050895E9
:100D600010927C001092A80508950F931F93CF93C3
:100D7000DF938C019B0184B78093AD05F894011536
:100D80001105D9F0C0E0D0E060E070E080E090E0D4
:100D9000F801EC0FFD1F20813181428153810E94B7
:100DA0007715249621E0C039D20791F720E030E092
:100DB00048EC52E40E94DF1515C060E070E080E06E
:100DC00090E0F901E60FF71F4081840F911D6F5FDE
:100DD0007F4F64367105A9F70E949D1780E090E06F
:100DE0000E94781678942091AD0524BFDF91CF91B1
:100DF0001F910F9108950F931F93CF93DF938091CD
:100E0000E4038823A1F11092E4034091F5033091AB
:100E1000F6032091F7038DB79EB70A970FB6F894A3
:100E20009EBF0FBE8DBFEDB7FEB73196C1E9D1E0D1
:100E3000ADB7BEB71296DC93CE93119787E191E0E0
:100E40009383828344831582368317822087118699
:100E50000E941519EDB7FEB73A960FB6F894FEBF8B
:100E60000FBEEDBF80E060E0AE010E94D80180912E
:100E70004902882309F448C0109249028091F40382
:100E800000D000D000D0EDB7FEB73196C1E9D1E077
:100E9000ADB7BEB71296DC93CE93119707E211E07F
:100EA00013830283848315820E941519EDB7FEB760
:100EB00036960FB6F894FEBF0FBEEDBF8BE060E034
:100EC000AE010E94D8018091F30300D000D000D081
:100ED000EDB7FEB73196ADB7BEB71296DC93CE93A1
:100EE000119713830283848315820E941519EDB72D
:100EF000FEB736960FB6F894FEBF0FBEEDBF8EE07C
:100F000060E0AE010E94D8018091E503882309F4D6
:100F100040C01092E5038091BF059091C005A0915B
:100F2000C105B091C2052DB73EB7285030400FB66D
:100F3000F8943EBF0FBE2DBF4DB75EB74F5F5F4FFA
:100F4000C1E9D1E0EDB7FEB7D283C1832CE231E035
:100F5000FA013383228384839583A683B7830E9417
:100F600015192DB73EB7285F3F4F0FB6F8943EBF17
:100F70000FBE2DBF80E061E0AE010E94D8018FED71
:100F800061E00E94040185E061E04BE051E00E94D5
:100F9000D8018091E303882309F471C01092E30320
:100FA00088E061E043E351E00E94D801809135027E
:100FB00090913602A0913702B0913802EDB7FEB79A
:100FC00038970FB6F894FEBF0FBEEDBF4DB75EB7B2
:100FD0004F5F5F4FC1E9D1E0D283C18327E331E0A6
:100FE000FA013383228384839583A683B7830E9487
:100FF00015192DB73EB7285F3F4F0FB6F8943EBF87
:101000000FBE2DBF8BE061E0AE010E94D8018BE3E3
:1010100091E00E94680160913502709136028091E2
:1010200037029091380220E030E046EC52E40E9412
:101030002A17181644F481E08093AC058EE061E035
:101040004BE351E01AC060913502709136028091F5
:1010500037029091380220E030E048EC52E40E94E0
:10106000DB1587FF0CC08091AC05882341F01092FE
:10107000AC058DE061E04DE351E00E94D801DF91C5
:10108000CF911F910F910895837021E030E011F00E
:1010900020E030E0C9010895FC019581A681B0E00F
:1010A0001197A60FB71F8C91981768F08681823030
:1010B00019F48781837059F4A681B0E01197A60FC7
:1010C000B71F8C910BC020E030E0C9010895A681C4
:1010D000B0E01197A60FB71F8C918150858321E056
:1010E00030E0F3CF8091E203882349F08DE060E0A7
:1010F00040E451E00E94D8011092E20308958DE08F
:1011000060E042E451E00E94D80181E08093E20374
:1011100008952F923F924F925F926F927F928F929B
:101120009F92AF92BF92CF92DF92EF92FF920F9376
:101130001F93DF93CF930F92CDB7DEB789E08093F3
:10114000F9031092F1031092F0031092F20310923F
:10115000F3031092F40387E08093F50388E0809313
:10116000F6038BE08093F7030E940E06A1E92A2E76
:10117000A1E03A2EF3E7EF2EF1E0FF2EEBE3DE2EB7
:1011800077E1A72E65E0962E5CE3C52E48E1842E1C
:1011900037E0B32E26E0722E94E0692E06E411E0CB
:1011A0008CE1582EB3E64B2E20919001223009F4A9
:1011B000D2C0233028F4222361F02130A9F72CC0BB
:1011C000243009F467C4243008F48DC3253061F756
:1011D00093C68091BE05873028F4823088F4882336
:1011E00021F0E2CF873001F712C08091EA03882313
:1011F00021F00E9472081092EA030E94FB0664C765
:101200005E9A8091B10087608093B10034C781E01D
:10121000809390015E9A2FC78091BE05843009F4B7
:1012200054C0853030F4882359F0823009F0BCCFA7
:101230003DC0863009F460C0873009F0B5CF67C083
:101240008091FB03882329F48091FC03882309F40F
:10125000ABCF1092FC031092FB0380E060E044E40B
:1012600051E00E94D8014091A90550E0A4E0440F4C
:10127000551FAA95E1F740565E4F81E060E00E945D
:10128000D80180E061E042E451E00E94D801409141
:10129000A90550E0F4E0440F551FFA95E1F74055D9
:1012A0005E4F81E061E00E94D8017ECF8091A90568
:1012B0008F5F8093A9058091A9056B2D0E949117DE
:1012C0009093A9052093FB03D6C68091A905882396
:1012D00031F08091A90581508093A90502C07092D8
:1012E000A9058091A9056B2D0E9491179093A905DE
:1012F00081E08093FB03BFC68091A905823009F489
:10130000EFC2833009F0E0C660929001DBC6109214
:1013100090011092BE055E985E9A8091B100876040
:101320008093B10081E060E029830E94040182E0A3
:1013300060E00E9404018CE060E00E9404011092D1
:10134000A90529812093E403209349022093E50312
:101350002093E30329CF8091BE05843009F435C181
:10136000853030F4882359F0823009F01DCF82C0D7
:10137000863009F4D8C1873009F016CFB0C2809109
:10138000FC03882309F410CF1092FC0381E060E095
:101390000E940401A0EAB5E0E0EFF3E088E00190EC
:1013A0000D928150E1F72091A5059091A6058091BD
:1013B000A7054DB75EB74A5050400FB6F8945EBFD0
:1013C0000FBE4DBFEDB7FEB73196ADB7BEB71296A3
:1013D0003C922E9211971383028324831582968365
:1013E0001782808711860E941519EDB7FEB73A96CD
:1013F0000FB6F894FEBF0FBEEDBF80E060E045E59C
:1014000051E00E94D80183E061E0A1010E94D8016F
:101410008EE060E00E94040110922C0210922D02D6
:1014200010922E0210922F0217C080E160E00E94FD
:10143000040180912C0290912D02A0912E02B09176
:101440002F020196A11DB11D80932C0290932D02B5
:10145000A0932E02B0932F0280912C0290912D0226
:10146000A0912E02B0912F0287309105A105B10500
:10147000E0F29ACE8091F803813019F1813018F0B2
:101480008230B1F530C08091A5058F5F8093A505AE
:101490009091A505E091A605F0E0E15EFD4F808109
:1014A000891718F481E08093A50580EA95E060E251
:1014B00072E00E944C080097D9F081E08093A50566
:1014C00017C09091A6059F5F9093A6059091A605E1
:1014D0009D3010F08093A60580EA95E060E272E00E
:1014E0000E944C0805C08091A7058F5F8093A705D7
:1014F0002091A5059091A6058091A7054DB75EB7EF
:101500004A5050400FB6F8945EBF0FBE4DBFEDB7C6
:10151000FEB73196ADB7BEB712963C922E92119798
:101520001383028324831582968317828087118612
:101530000E941519EDB7FEB73A960FB6F894FEBFA4
:101540000FBEEDBF83E061E0A1010E94D8011092BF
:101550002C0210922D0210922E0210922F0217C010
:1015600080E160E00E94040180912C0290912D02A4
:10157000A0912E02B0912F020196A11DB11D809362
:101580002C0290932D02A0932E02B0932F02209153
:101590002C0230912D0240912E0250912F02609129
:1015A000F80370E0CB01880F991F860F971F909565
:1015B00081959F4F0796AA2797FDA095BA2F2817C8
:1015C00039074A075B0760F256C58091F8038130FE
:1015D000F9F0813018F08230C9F52DC08091A50551
:1015E00081508093A5058091A505882379F5E09128
:1015F000A605F0E0E15EFD4F80818093A505809116
:10160000A605823019F58091A7058370F9F060C5B1
:101610008091A60581508093A6058091A605882318
:1016200019F48CE08093A60580EA95E060E272E010
:101630000E944C080BC08091A70581508093A7059C
:101640008091A705882311F44092A7052091A50554
:101650009091A6058091A7054DB75EB74A505040BE
:101660000FB6F8945EBF0FBE4DBFEDB7FEB7319613
:10167000ADB7BEB712963C922E9211971383028398
:101680002483158296831782808711860E941519FC
:10169000EDB7FEB73A960FB6F894FEBF0FBEEDBF9A
:1016A00083E061E0A1010E94D80110922C02109207
:1016B0002D0210922E0210922F0217C080E160E0DE
:1016C0000E94040180912C0290912D02A0912E0283
:1016D000B0912F020196A11DB11D80932C02909311
:1016E0002D02A0932E02B0932F0220912C02309154
:1016F0002D0240912E0250912F026091F80370E06C
:10170000CB01880F991F860F971F909581959F4F4A
:101710000796AA2797FDA095BA2F281739074A07D9
:101720005B0760F2A8C48091F803823098F51092AC
:101730002C0210922D0210922E0210922F0217C02E
:1017400084E160E00E94040180912C0290912D02BE
:10175000A0912E02B0912F020196A11DB11D809380
:101760002C0290932D02A0932E02B0932F02809111
:101770002C0290912D02A0912E02B0912F02833065
:101780009105A105B105E0F28091F8038F5F809388
:10179000F8032FC01092F80310922C0210922D0221
:1017A00010922E0210922F0217C080E160E00E947A
:1017B000040180912C0290912D02A0912E02B091F3
:1017C0002F020196A11DB11D80932C0290932D0232
:1017D000A0932E02B0932F0280912C0290912D02A3
:1017E000A0912E02B0912F0286309105A105B1057E
:1017F000E0F280EA95E060E272E00E944C08009717
:1018000009F439C42091A5059091A6058091A705FA
:101810004DB75EB74A5050400FB6F8945EBF0FBE4A
:101820004DBFEDB7FEB73196ADB7BEB712963C923D
:101830002E92119713830283248315829683178235
:10184000808711860E941519EDB7FEB73A960FB63C
:10185000F894FEBF0FBEEDBF83E061E0A1010E94DE
:10186000D80110922C0210922D0210922E0210928A
:101870002F0217C080E160E00E94040180912C02D9
:1018800090912D02A0912E02B0912F020196A11DE0
:10189000B11D80932C0290932D02A0932E02B09341
:1018A0002F0220912C0230912D0240912E02509156
:1018B0002F026091F80370E0CB01880F991F860F0B
:1018C000971F909581959F4F0796AA2797FDA09502
:1018D000BA2F281739074A075B0760F2CCC383E0A9
:1018E00080939001EFC38091BE05863009F4B0C0AB
:1018F000873009F4B8C0882309F056CC8091FC03E6
:101900008823B9F180E060E043E651E00E94D8010D
:1019100010922C0210922D0210922E0210922F0281
:1019200017C080E160E00E94040180912C02909138
:101930002D02A0912E02B0912F020196A11DB11D82
:1019400080932C0290932D02A0932E02B0932F022D
:1019500080912C0290912D02A0912E02B0912F0225
:1019600085309105A105B105E0F21092FC031092BB
:10197000F8038091FA03882309F416CC8091F803C8
:10198000882391F582E060E00E94040110922C020D
:1019900010922D0210922E0210922F0217C084E195
:1019A00060E00E94040180912C0290912D02A09190
:1019B0002E02B0912F020196A11DB11D80932C0221
:1019C00090932D02A0932E02B0932F0280912C02AF
:1019D00090912D02A0912E02B0912F028A30910594
:1019E000A105B105E0F231C082E060E00E9404018F
:1019F00010922C0210922D0210922E0210922F02A1
:101A000017C084E160E00E94040180912C02909153
:101A10002D02A0912E02B0912F020196A11DB11DA1
:101A200080932C0290932D02A0932E02B0932F024C
:101A300080912C0290912D02A0912E02B0912F0244
:101A40008D309105A105B105E0F21092FA03ACCBFF
:101A50009091F80381E0911180E08093F80381E098
:101A60008093FA0308C38091F803882331F081E062
:101A7000809390011092F80325C38091A50580936F
:101A8000F5038091A6058093F6038091A7058093C6
:101A9000F7030AC38091BE05843009F428C185305C
:101AA00030F4882359F0823009F07ECB82C0863032
:101AB00009F4B8C1873009F077CB1BC28091FC03D1
:101AC000882309F471CB1092FC0381E060E00E944E
:101AD0000401A0EAB5E0E0EFF3E088E001900D92A8
:101AE0008150E1F72091A4059091A3058091A20572
:101AF0004DB75EB74A5050400FB6F8945EBF0FBE68
:101B00004DBFEDB7FEB73196ADB7BEB712963C925A
:101B10002E921197F382E282248315829683178294
:101B2000808711860E941519EDB7FEB73A960FB659
:101B3000F894FEBF0FBEEDBF80E060E042E851E0E8
:101B40000E94D80183E061E0A1010E94D8018EE0EB
:101B500060E00E94040110922C0210922D0210925B
:101B60002E0210922F0217C080E160E00E94040153
:101B700080912C0290912D02A0912E02B0912F0203
:101B80000196A11DB11D80932C0290932D02A0936C
:101B90002E02B0932F0280912C0290912D02A091E1
:101BA0002E02B0912F0287309105A105B105E0F218
:101BB000FBCA1092BE0580914602813091F08130BF
:101BC00018F0823039F51AC08091A4058F5F809398
:101BD000A4058091A405682D0E9491179093A405F7
:101BE00019C08091A3058F5F8093A3058091A30501
:101BF0006C2D0E9491179093A3050CC08091A205B3
:101C00008F5F8093A2058091A2056C2D0E94911791
:101C10009093A2052091A4059091A3058091A2051F
:101C20004DB75EB74A5050400FB6F8945EBF0FBE36
:101C30004DBFEDB7FEB73196ADB7BEB712963C9229
:101C40002E921197F382E282248315829683178263
:101C5000808711860E941519EDB7FEB73A960FB628
:101C6000F894FEBF0FBEEDBF83E061E0A1010E94CA
:101C7000D80110922C0210922D0210922E02109276
:101C80002F0217C080E160E00E94040180912C02C5
:101C900090912D02A0912E02B0912F020196A11DCC
:101CA000B11D80932C0290932D02A0932E02B0932D
:101CB0002F0220912C0230912D0240912E02509142
:101CC0002F026091460270E0CB01880F991F860FAA
:101CD000971F909581959F4F0796AA2797FDA095EE
:101CE000BA2F281739074A075B0760F25DCA1092BE
:101CF000BE0580914602813089F0813018F0823033
:101D000021F518C08091A40581508093A40580918D
:101D1000A4058931D0F0A092A40517C08091A30535
:101D200081508093A3058091A3058D3370F0D092EC
:101D3000A3050BC08091A20581508093A2058091DC
:101D4000A2058D3310F0D092A2052091A4059091A8
:101D5000A3058091A2054DB75EB74A5050400FB61B
:101D6000F8945EBF0FBE4DBFEDB7FEB73196ADB76D
:101D7000BEB712963C922E921197F382E282248390
:101D8000158296831782808711860E941519EDB7F8
:101D9000FEB73A960FB6F894FEBF0FBEEDBF83E0D4
:101DA00061E0A1010E94D80110922C0210922D0234
:101DB00010922E0210922F0217C080E160E00E9464
:101DC000040180912C0290912D02A0912E02B091DD
:101DD0002F020196A11DB11D80932C0290932D021C
:101DE000A0932E02B0932F0220912C0230912D024D
:101DF00040912E0250912F026091460270E0CB017B
:101E0000880F991F860F971F909581959F4F079672
:101E1000AA2797FDA095BA2F281739074A075B070D
:101E200060F2C2C980914602823098F510922C026D
:101E300010922D0210922E0210922F0217C084E1F0
:101E400060E00E94040180912C0290912D02A091EB
:101E50002E02B0912F020196A11DB11D80932C027C
:101E600090932D02A0932E02B0932F0280912C020A
:101E700090912D02A0912E02B0912F0283309105F6
:101E8000A105B105E0F2809146028F5F8093460282
:101E9000F2C01092460210922C0210922D02109263
:101EA0002E0210922F0217C080E160E00E94040110
:101EB00080912C0290912D02A0912E02B0912F02C0
:101EC0000196A11DB11D80932C0290932D02A09329
:101ED0002E02B0932F0280912C0290912D02A0919E
:101EE0002E02B0912F0286309105A105B105E0F2D6
:101EF000C2C090929001E6C08091BE05863009F480
:101F0000B0C0873009F4BAC0882309F04DC9809168
:101F1000FC038823B9F180E060E043E651E00E94D1
:101F2000D80110922C0210922D0210922E021092C3
:101F30002F0217C080E160E00E94040180912C0212
:101F400090912D02A0912E02B0912F020196A11D19
:101F5000B11D80932C0290932D02A0932E02B0937A
:101F60002F0280912C0290912D02A0912E02B0910F
:101F70002F0285309105A105B105E0F21092FC0316
:101F80001092460280914302882309F40DC9809182
:101F90004602882391F582E060E00E9404011092DD
:101FA0002C0210922D0210922E0210922F0217C0B6
:101FB00084E160E00E94040180912C0290912D0246
:101FC000A0912E02B0912F020196A11DB11D809308
:101FD0002C0290932D02A0932E02B0932F02809199
:101FE0002C0290912D02A0912E02B0912F028A30E6
:101FF0009105A105B105E0F231C082E060E00E94E8
:10200000040110922C0210922D0210922E021092B6
:102010002F0217C084E160E00E94040180912C022D
:1020200090912D02A0912E02B0912F020196A11D38
:10203000B11D80932C0290932D02A0932E02B09399
:102040002F0280912C0290912D02A0912E02B0912E
:102050002F028D309105A105B105E0F210924302E7
:10206000A3C89091460281E0911180E080934602DE
:1020700081E0809343021092BE0596C8809146028B
:10208000882331F081E080939001109246021AC0BB
:102090008091A2058093F2038091A3058093F303BE
:1020A0008091A4058093F40381E08093900160E027
:1020B0000E94040182E060E00E9404018CE060E084
:1020C0000E9404011092BE0581E08093FC036CC85D
:1020D0005092A505BBCAEF92FF920F931F93CF9327
:1020E000DF937B018C010E944716EB01BE0188271C
:1020F00077FD8095982F0E947A169B01AC01C8014C
:10210000B7010E94761520E030E040E05FE30E94D6
:102110002A1718160CF42196CE01DF91CF911F914A
:102120000F91FF90EF900895AF92BF92CF92DF9200
:10213000EF92FF920F931F937B018C0160917800C7
:102140007091790080E090E00E9478166093BA0563
:102150007093BB058093BC059093BD056091BA0553
:102160007091BB058091BC059091BD0520E030E0E9
:1021700040E85AE30E942E1720E030E040EA50E4A5
:102180000E942E179B01AC012093AE053093AF0542
:102190004093B0055093B1056091AE057091AF05C5
:1021A0008091B0059091B1052CEC3CEC4CE45FE3E0
:1021B0000E94761527EB33EF4DEF5CE30E94DF15AD
:1021C0009B01AC012093E6033093E7034093E803BF
:1021D0005093E903A090E603B090E703C090E803B2
:1021E000D090E903C801B7010E946B109C01B901AE
:1021F000882777FD8095982F0E947A1629EC3EE873
:102200004DE05BE30E942E179B01AC0162E27DEF83
:1022100086E89FE30E9476159B01AC01C601B501DB
:102220000E94DF159B01AC012093EC033093ED037A
:102230004093EE035093EF036091EC037091ED0334
:102240008091EE039091EF030E946B101F910F910C
:10225000FF90EF90DF90CF90BF90AF9008951F92C6
:102260000F920FB60F9211240F931F932F933F934A
:102270004F935F936F937F938F939F93AF93BF938E
:10228000CF93DF93EF93FF938091F903823008F4AB
:1022900092C01091F90384B78093AD05F8948091B2
:1022A0004702909148028431910550F48091470291
:1022B000909148020196909348028093470275C01E
:1022C000109248021092470280914102909142027E
:1022D00084369105D8F58091A805882321F08130B6
:1022E00009F063C00EC0C0914102D09142020E9429
:1022F0001F06FE01EE0FFF1FEE0FFF1FE350FC4F06
:102300001BC0C0914102D09142026091BF05709103
:10231000C0058091C1059091C2050E949410682F5C
:1023200070E080E090E00E947816FE01EE0FFF1F43
:10233000EE0FFF1FEE5AFD4F6083718382839383FC
:102340002196D0934202C09341022FC010924202C4
:10235000109241020091A805002319F0013019F5EF
:1023600012C08DEF93E060E070E00E94B5066093CC
:10237000BF057093C0058093C1059093C20581E0AD
:102380008093E50310C080E090E062E572E00E9477
:10239000B5066093350270933602809337029093AE
:1023A00038020093E3030E949E0678948091AD0565
:1023B00084BF1093F903FF91EF91DF91CF91BF910B
:1023C000AF919F918F917F916F915F914F913F91CD
:1023D0002F911F910F910F900FBE0F901F90189586
:1023E000A3E1B0E0E6EFF1E10C94C4176C017F8744
:1023F0006E87FC0117821682838181FD04C06FC342
:102400004C855D8504C01E010894211C311CF60119
:102410009381EE85FF8593FD859193FF8191FF87E1
:10242000EE87882309F457C3853241F493FD8591E3
:1024300093FF8191FF87EE87853259F490E0B601D2
:102440004A8B5B8B0E94E9184A895B895D874C87C0
:10245000D7CF10E0FF2400E00032B0F48B3269F0F7
:102460008C3228F4803251F0833271F40BC08D32FB
:1024700039F0803349F401602CC00260046029C047
:10248000086027C0006125C007FD2EC0282F2053FB
:102490002A3098F406FF08C0812F880F182F110FDB
:1024A000110F180F120F15C08F2D880FF82EFF0C6B
:1024B000FF0CF80EF20E00620CC08E3221F406FD05
:1024C0000AC3006406C08C3611F4006802C0883666
:1024D00059F4EE85FF8593FD859193FF8191FF87E8
:1024E000EE87882309F0B8CF982F9554933018F4CD
:1024F0000061805E06C0982F9556933008F09BC10E
:102500000F7E06FF16E06FE3E62EE022853619F413
:10251000F0E4EF2A07C0863619F420E8E22A02C068
:1025200011111150E7FE06C01C3340F4912E939414
:1025300027E00BC0183030F4212F06C027E03CE321
:10254000932E03C027E017E09924CA0104969D87C3
:102550008C87FA016081718182819381A101092DAB
:102560000E94FB175C016980262D30E0398B288B97
:1025700060FE03C0388933FF06C0E1FC06C0E2FEFE
:1025800006C000E205C00DE203C00BE201C000E09E
:10259000888999898C7090700097C1F1002311F09F
:1025A00084E001C083E08F1558F4F81AE3FC09C0F9
:1025B00080E290E0B6010E94E918FA94C9F701C0E0
:1025C000FF24002329F0802F90E0B6010E94E91833
:1025D000888983FD03C00CE610E00EC008E610E019
:1025E0000BC0A114B10409F0805290E0B6010E9422
:1025F000E9180F5F1F4F05C0AE2CBB2490E1A92244
:10260000BB24F8018491882361F762C2E7FE0EC003
:102610009A0CF889F4FF04C08A81813309F49A94F2
:10262000191454F5292D293050F52DC0E6FC2BC086
:10263000812F90E08A159B054CF03CEFA3163FEFED
:10264000B30624F080E8E82A01C01150112349F0B4
:10265000E2E0F0E0EC0FFD1FE10FF11D808180331F
:10266000A1F3E7FE10C0912E9394812F90E0A8165D
:10267000B90644F41A1907C09924939404C098E049
:10268000992E01C010E0E7FE07C01A141B043CF4A9
:1026900095012F5F3F4F05C025E030E002C021E0EB
:1026A00030E0002311F02F5F3F4F112329F0812FDD
:1026B00090E00196280F391F8F2D90E028173907D9
:1026C00014F4F21A01C0FF244E2C5524C201897063
:1026D0009070009749F406C080E290E0B6010E9435
:1026E000E918FA94FF20C1F7002329F0802F90E029
:1026F000B6010E94E91843FC09C006C080E390E0DF
:10270000B6010E94E918FA94FF20C1F7E7FE46C01F
:102710003501B7FE02C06624772425010894411CC8
:10272000511C46185708420C531CF501E919F109D0
:102730004F01812F90E000271127081B190BFFEF95
:102740006F16FFEF7F0629F48EE290E0B6010E943B
:10275000E918A614B70434F0861497041CF4F201A7
:10276000808101C080E30894610871080894411CCD
:10277000511C601671062CF090E0B6010E94E91819
:10278000DECF6A147B0441F49A81963320F49533AA
:1027900019F4F889F4FF81E390E049C08A8181331C
:1027A00011F02FEE622290E0B6010E94E918112389
:1027B00089F08EE290E0B6010E94E91802E0F10192
:1027C000E00FF11D0F5F808190E0B6010E94E918D3
:1027D0001150A9F744FE03C085E490E002C085E6ED
:1027E00090E0B6010E94E918B7FC05C0A114B1043D
:1027F00041F464FE06C0B094A194B108B3948DE294
:1028000001C08BE290E0B6010E94E91880E305C0A8
:102810008F5FE6EFFFEFAE0EBF1EFAE0AF16B1041A
:10282000BCF790E0B6010E94E918C501C096B60158
:102830000E94E9184DC1833631F0833789F0833522
:1028400009F059C022C09A012E5F3F4F3D872C8767
:10285000FA0180818983310181E0A82EB12C13C057
:102860009A012E5F3F4F3D872C87FA01608071806F
:1028700006FF03C0612F70E002C06FEF7FEFC3015E
:102880000E94DE185C010F7714C09A012E5F3F4F43
:102890003D872C87FA016080718006FF03C0612F9D
:1028A00070E002C06FEF7FEFC3010E94D3185C019C
:1028B000006803FD1CC006C080E290E0B6010E94E3
:1028C000E918FA948F2D90E0A816B906A8F30FC066
:1028D000F30107FD859107FF81913F0190E0B6016B
:1028E0000E94E918F110FA940894A108B108A11403
:1028F000B10471F7EDC0843611F0893661F507FF38
:102900000BC09A012C5F3F4F3D872C87FA016081F5
:102910007181828193810CC09A012E5F3F4F3D8768
:102920002C87FA0160817181882777FD8095982F27
:102930000F7697FF08C090958095709561957F4FB1
:102940008F4F9F4F0068A1012AE030E00E943819A4
:10295000982E921841C0853721F40F7E2AE030E08E
:1029600020C0097F8F36A9F0803720F4883509F020
:10297000B2C00BC0803721F0883709F0ACC001C06D
:10298000006104FF09C0046007C004FF08C00660BE
:1029900006C028E030E005C020E130E002C020E1C0
:1029A00032E007FF0AC0CA0104969D878C87FA01AE
:1029B000608171818281938109C0CA0102969D87DD
:1029C0008C87FA016081718180E090E0A1010E9412
:1029D0003819982E92180F7706FF09C00E7F9116AE
:1029E00030F404FF06C002FD04C00F7E02C0E92CD3
:1029F00001C0E12E802F90E004FF0CC0FE01E90D24
:102A0000F11D2081203311F4097E09C0E39402FFF7
:102A100006C004C086789070009709F0E394A02E59
:102A2000BB2403FD14C000FF0FC0EF1428F4192DC0
:102A30001F0D1E19EF2C08C0192D06C080E290E072
:102A4000B6010E94E918E394EF14C0F304C0EF1438
:102A500010F4FE1801C0FF24A4FE0FC080E390E034
:102A6000B6010E94E918A2FE1FC0A1FE03C088E5BE
:102A700090E010C088E790E00DC0C50186789070A6
:102A8000009791F0A1FC02C080E201C08BE207FD3B
:102A90008DE290E0B6010E94E91806C080E390E064
:102AA000B6010E94E91811509116C0F39A94F101F1
:102AB000E90DF11D808190E0B6010E94E91899208E
:102AC000A9F706C080E290E0B6010E94E918FA94E6
:102AD000FF20C1F795CCF6012681378102C02FEF88
:102AE0003FEFC9016396E2E10C94E0175058BB2711
:102AF000AA270ED075C166D130F06BD120F031F429
:102B00009F3F11F41EF45BC10EF4E095E7FB51C149
:102B1000E92F77D180F3BA17620773078407950707
:102B200018F071F49EF58FC10EF4E0950B2EBA2FBC
:102B3000A02D0B01B90190010C01CA01A0011124C3
:102B4000FF27591B99F0593F50F4503E68F11A166F
:102B5000F040A22F232F342F4427585FF3CF469500
:102B600037952795A795F0405395C9F77EF41F1622
:102B7000BA0B620B730B840BBAF09150A1F0FF0FEC
:102B8000BB1F661F771F881FC2F70EC0BA0F621FD8
:102B9000731F841F48F4879577956795B795F795C8
:102BA0009E3F08F0B3CF9395880F08F09927EE0F5A
:102BB000979587950895D9D008F481E008950CD0B1
:102BC0000FC107D140F0FED030F021F45F3F19F083
:102BD000F0C0511139C1F3C014D198F39923C9F34E
:102BE0005523B1F3951B550BBB27AA276217730713
:102BF000840738F09F5F5F4F220F331F441FAA1FC7
:102C0000A9F333D00E2E3AF0E0E830D09150504086
:102C1000E695001CCAF729D0FE2F27D0660F771F34
:102C2000881FBB1F261737074807AB07B0E809F016
:102C3000BB0B802DBF01FF2793585F4F2AF09E3FAB
:102C4000510568F0B6C000C15F3FECF3983EDCF37D
:102C5000869577956795B795F7959F5FC9F7880F24
:102C6000911D9695879597F90895E1E0660F771F76
:102C7000881FBB1F621773078407BA0720F0621B07
:102C8000730B840BBA0BEE1F88F7E095089504D000
:102C90006894B111D9C00895BCD088F09F5790F0C6
:102CA000B92F9927B751A0F0D1F0660F771F881F71
:102CB000991F1AF0BA95C9F712C0B13081F0C3D08C
:102CC000B1E00895C0C0672F782F8827B85F39F02A
:102CD000B93FCCF3869577956795B395D9F73EF4D0
:102CE00090958095709561957F4F8F4F9F4F089578
:102CF000E89409C097FB3EF4909580957095619596
:102D00007F4F8F4F9F4F9923A9F0F92F96E9BB274B
:102D10009395F695879577956795B795F111F8CFC7
:102D2000FAF4BB0F11F460FF1BC06F5F7F4F8F4F32
:102D30009F4F16C0882311F096E911C0772321F028
:102D40009EE8872F762F05C0662371F096E8862FC0
:102D500070E060E02AF09A95660F771F881FDAF717
:102D6000880F9695879597F90895990F0008550F44
:102D7000AA0BE0E8FEEF16161706E807F907C0F001
:102D800012161306E407F50798F0621B730B840B09
:102D9000950B39F40A2661F0232B242B252B21F4E3
:102DA00008950A2609F4A140A6958FEF811D811D83
:102DB000089597F99F6780E870E060E008959FEFBD
:102DC00080EC089500240A941616170618060906C2
:102DD000089500240A941216130614060506089591
:102DE000092E0394000C11F4882352F0BB0F40F419
:102DF000BF2B11F460FF04C06F5F7F4F8F4F9F4F59
:102E0000089557FD9058440F551F59F05F3F71F0DA
:102E10004795880F97FB991F61F09F3F79F0879541
:102E20000895121613061406551FF2CF4695F1DFCA
:102E300008C0161617061806991FF1CF869571055A
:102E4000610508940895E894BB2766277727CB018E
:102E500097F908958ADF08F48FEF08950BD0C0CF5B
:102E6000B1DF28F0B6DF18F0952309F0A2CFA7CF85
:102E70001124EACFC6DFA0F3959FD1F3950F50E060
:102E8000551F629FF001729FBB27F00DB11D639F1C
:102E9000AA27F00DB11DAA1F649F6627B00DA11DC2
:102EA000661F829F2227B00DA11D621F739FB00D68
:102EB000A11D621F839FA00D611D221F749F3327D8
:102EC000A00D611D231F849F600D211D822F762F71
:102ED0006A2F11249F5750408AF0E1F088234AF06E
:102EE000EE0FFF1FBB1F661F771F881F91505040BA
:102EF000A9F79E3F510570F05CCFA6CF5F3FECF382
:102F0000983EDCF3869577956795B795F795E795A5
:102F10009F5FC1F7FE2B880F911D9695879597F9B6
:102F20000895991B79E004C0991F961708F0961B25
:102F3000881F7A95C9F780950895AA1BBB1B51E19C
:102F400007C0AA1FBB1FA617B70710F0A61BB70B19
:102F5000881F991F5A95A9F780959095BC01CD01BE
:102F6000089597FB092E07260AD077FD04D0E5DFE8
:102F700006D000201AF4709561957F4F0895F6F7FA
:102F8000909581959F4F08952F923F924F925F9217
:102F90006F927F928F929F92AF92BF92CF92DF9269
:102FA000EF92FF920F931F93CF93DF93CDB7DEB7CE
:102FB000CA1BDB0B0FB6F894DEBF0FBECDBF099462
:102FC0002A88398848885F846E847D848C849B84B9
:102FD000AA84B984C884DF80EE80FD800C811B81C7
:102FE000AA81B981CE0FD11D0FB6F894DEBF0FBEF6
:102FF000CDBFED010895283008F027E03327DA012E
:10300000990F311D87FD916000966105710539F4B6
:1030100032602E5F3D9330E32A95E1F708959F3F9C
:1030200030F080387105610509F03C5F3C5F3D93ED
:10303000913008F08068911DDF93CF931F930F9319
:10304000FF92EF92192F987F9695E92F9695969576
:10305000E90FFF27E653FF4F99273327EE24FF247C
:10306000A701E70105900894079428F4360FE71E9E
:10307000F81E491F511D660F771F881F991F069460
:10308000A1F70590079428F4E70EF81E491F561F74
:10309000C11D770F881F991F661F0694A1F7059021
:1030A000079428F4F80E491F561FC71FD11D880F1B
:1030B000991F661F771F0694A1F70590079420F4C7
:1030C000490F561FC71FD81F990F661F771F881FEC
:1030D0000694A9F784911095177041F0D695C7957D
:1030E00057954795F794E7941A95C1F7E0E7F0E014
:1030F00068941590159135916591959105907FE2B1
:103100007395E118F10A430B560BC90BD009C0F7B0
:10311000E10CF11E431F561FC91FD01D7EF47033F2
:1031200011F48A95E6CFE894015030F0080F0AF4C4
:103130000027021708F4202F2395022F7A3328F056
:1031400079E37D932A95E9F710C07D932A9589F656
:10315000069497956795379517951794E118F10A96
:10316000430B560BC90BD00998F023957E917395AC
:103170007A3308F070E37C932013B8F77E91706186
:103180007D9330F0839571E37D9370E32A95E1F7A9
:103190001124EF90FF900F911F91CF91DF9199270C
:1031A00087FD90950895FC010590615070400110D5
:1031B000D8F7809590958E0F9F1F0895FC01615060
:1031C000704001900110D8F7809590958E0F9F1F49
:1031D00008950F931F93CF93DF938C01EB018B81A5
:1031E00081FF1BC082FF0DC02E813F818C819D819C
:1031F0002817390764F4E881F9810193F983E8839A
:1032000006C0E885F985802F0995009731F48E81F5
:103210009F8101969F838E8302C00FEF1FEFC8012D
:10322000DF91CF911F910F910895AEE0B0E0EBE1F7
:10323000F9E10C94D2170D891E8986E08C831A83DC
:1032400009838FEF9FE79E838D839E01275E3F4F0B
:10325000CE0101966F89788DA9010E94F011EF814E
:10326000F885E00FF11F10822E96E4E00C94EE1723
:10327000FA01AA27283051F1203181F1E8946F93A7
:103280006E7F6E5F7F4F8F4F9F4FAF4FB1E03ED04D
:10329000B4E03CD0670F781F891F9A1FA11D680FEB
:1032A000791F8A1F911DA11D6A0F711D811D911D1E
:1032B000A11D20D009F468943F912AE0269F112493
:1032C0003019305D3193DEF6CF010895462F4770F7
:1032D000405D4193B3E00FD0C9F7F6CF462F4F7052
:1032E000405D4A3318F0495D31FD4052419302D0B0
:1032F000A9F7EACFB4E0A695979587957795679556
:10330000BA95C9F700976105710508959B01AC0155
:103310000A2E06945795479537952795BA95C9F77C
:10332000620F731F841F951FA01D0895F894FFCF8F
:1033300030303A30300030302E3000432C005248CC
:103340003D38382E382500253032642F2530326440
:103350002F253032642C0025303264002530342E85
:1033600031660052483D00253264002500252000CA
:103370003A0020002D00253032642F253032642F92
:10338000253032640045646974696E672064617435
:10339000653A00436F6E6665726D693F2053692F11
:1033A0004E6F00253032643A253032643A2530328F
:1033B000640045646974696E672074696D653A00DC
:1033C00002000000000000000000000000000000FB
:1033D000312E536F676C696120312D4445554D0086
:1033E000322E536F676C696120322D414C4C2000A6
:1033F000332E4461746120202020202020202000D2
:10340000342E4F72612020202020202020202000F8
:10341000352E68656C6C6F20202020202020000055
:10342000362E776F726C6420202020202020200010
:10343000372E6369616F202020202020202020006B
:1034400020202020202020202020202020200000BC
:0C3450001F1D1F1E1F1E1F1F1E1F1E1F02
:00000001FF
