:100000000C94B5000C94D2000C94D2000C94D20045
:100010000C94D2000C94D2000C94D2000C94D20018
:100020000C9435060C94D2000C94D2000C94D2009F
:100030000C94D2000C94D2000C94D2000C94480B77
:100040000C94D2000C94D2000C94D2000C94D200E8
:100050000C94D2000C9407070C94D2000C94D2009C
:100060000C94D2000C94D2006E616E00696E660032
:1000700000407A10F35A00A0724E18090010A5D45F
:10008000E80000E87648170000E40B54020000CABC
:100090009A3B000000E1F505000080969800000002
:1000A00040420F000000A086010000001027000061
:1000B0000000E803000000006400000000000A00E7
:1000C000000000000100000000002C76D888DC67EA
:1000D0004F0823DFC1DFAE59E1B1B796E5E3E45342
:1000E000C63AE651997696E8E6C28426EB898C9B5F
:1000F00062ED407C6FFCEFBC9C9F40F2BAA56FA5FF
:10010000F490055A2AF75C936B6CF9676DC11BFC80
:10011000E0E40D47FEF520E6B500D0ED902E03009B
:10012000943577050080841E080000204E0A0000E8
:1001300000C80C333333330F986E12831141EF8DA7
:100140002114893BE65516CFFEE6DB18D1844B38E7
:100150001BF77C1D901DA4BBE424203284725E2218
:100160008100C9F124ECA1E53D2711241FBECFEF8A
:10017000D8E0DEBFCDBF12E0A0E0B1E0E4E5FDE3F2
:1001800002C005900D92A035B107D9F712E0A0E5A5
:10019000B2E001C01D92AD39B107E1F70E94360D02
:1001A0000C94A81E0C94000084B1807F84B92C9A12
:1001B0002D9882E08A95F1F700C05F9A92E09A95B7
:1001C000F1F700C083B18295807F92E09A95F1F7B4
:1001D00000C05F9895E09A95F1F700005F9A92E071
:1001E0009A95F1F700C093B192E09A95F1F700C0AB
:1001F0005F9895E09A95F1F7000087FDDECF2C9887
:1002000084B18F6084B90895282F22952F708F7044
:10021000662311F42D9801C02D9A92E09A95F1F77A
:1002200000C05F9A95B1907F922B95B995E09A9511
:10023000F1F700005F9895E09A95F1F700005F9A5A
:1002400095B1907F982B95B985E08A95F1F70000DC
:100250005F9895E09A95F1F700000E94D400089508
:10026000DF93CF930F92CDB7DEB72FEF36E741E0A4
:10027000215030404040E1F700C0000094B19F6041
:1002800094B9579A259A249A95B1907F95B95F9819
:100290002C982D9800C000C000005F9A299A35E084
:1002A0003A95F1F700005F9845E04A95F1F70000B4
:1002B00089830E94D40089818C6060E00E940401DF
:1002C00088E260E00E9404010F90CF91DF910895D1
:1002D000EF92FF92CF93DF93E82EE7017E01F92E94
:1002E000E70103C061E00E94040189918823D1F7EE
:1002F000DF91CF91FF90EF900895EF92FF920F93CF
:100300001F93DF93CF9300D000D00F92CDB7DEB70D
:100310009B01FE01319645E0DF011D924A95E9F708
:10032000FE0136960AE010E005C0B8010E94A81C44
:100330008293CB010097C9F7BFEF2F3F3B0751F4E2
:10034000FE01319680E090E001C0019621912223C8
:10035000E1F304C085E090E0821B930B8E010F5FF8
:100360001F4F080F191F7C010AC0F80181918F01EE
:10037000805D61E00E9404010894E11CF11CF5E03D
:10038000EF16F10494F30F900F900F900F900F90D1
:10039000CF91DF911F910F91FF90EF9008958832D8
:1003A00030F461118064806860E00E940401089567
:1003B000CF93DF93EA010E94CF01CE010E94680132
:1003C000DF91CF9108951092B9008CE08093B8002E
:1003D0009091B80081E09B3008F480E0089584EAB1
:1003E0008093BC008091BC0087FFFCCF8091B90056
:1003F000887F883041F09091B900987F81E09031FA
:1004000019F480E0089580E0089594EA9093BC0088
:100410009091BC0097FFFCCF9091B900987F9830E5
:1004200011F0903199F48093BB0084E88093BC0074
:100430008091BC0087FFFCCF9091B900987F9831E4
:1004400039F081E0983429F480E0089582E008953D
:1004500080E0089584EA8093BC008091BC0087FF0F
:10046000FCCF9091B900987F81E0903109F480E051
:1004700008958093BB0084E88093BC008091BC0009
:1004800080648093BC008091BC0087FFFCCF80918A
:10049000B900887F883141F09091B900987F81E060
:1004A000903419F480E0089580E0089580FF02C040
:1004B00048E401C040E28093BB0084E88093BC0024
:1004C0008091BC0087FFFCCF2091B90030E0287FED
:1004D000307050E081E02417350709F480E008957A
:1004E0008093BB0084EC8093BC008091BC0087FFAC
:1004F000FCCF8091B900887F883241F09091B9009B
:10050000987F81E0903319F480E0089580E00895A9
:100510008093BB0084E88093BC008091BC0087FF7F
:10052000FCCF9091B900987F81E0903309F480E08E
:10053000089584EC8093BC008091BC0087FFFCCFC1
:100540008091B900887F803519F48091BB000895AF
:1005500087ED089584E88093BC008091BC0087FFFC
:10056000FCCF8091B900887F883519F48091BB0059
:10057000089587ED089584E98093BC008091BC00C4
:1005800084FDFCCF08953F924F925F926F927F92CD
:100590008F929F92AF92BF92CF92DF92EF92FF9293
:1005A0000F931F93CF93DF935B016C018FEF9FEF4E
:1005B000AFEFB1E0A822B922CA22DB22992420EAB7
:1005C000422E512C612C712CEE24FF2487013FC058
:1005D000A801970197E0220F331F441F551F9A95DA
:1005E000D1F7832E442329F088EA482E512C612C20
:1005F000712C842D0E940502382E882D0E947002D5
:10060000382A892D0E947002832939F4C0E0D0E095
:100610008FEF0E947002882339F00E94BB0227ED01
:1006200030E040E050E01CC02196C038D10581F791
:100630000E94BB02AFE1BEE41197F1F700C00000D9
:100640000894E11CF11C011D111DB0E89B0EEA1479
:10065000FB040C051D0508F4BBCF20E030E0A90128
:10066000B901CA01DF91CF911F910F91FF90EF90D7
:10067000DF90CF90BF90AF909F908F907F906F90C2
:100680005F904F903F9008953F924F925F926F928C
:100690007F928F929F92AF92BF92CF92DF92EF9212
:1006A000FF920F931F93CF93DF932B013C016901BE
:1006B0007A01662011F480EA01C088EA0E940502EE
:1006C000882309F05DC0852D0E947002882E842D3C
:1006D0000E947002882909F064C0A02EE5015E0125
:1006E000B12EE50110E04FC089910E947002082FE1
:1006F0001F5F212F30E040E050E049015A01840C97
:10070000951CA61CB71C80E0881680E0980681E046
:10071000A80680E0B80649F090E0891690E09906B6
:1007200092E0A90690E0B90649F52C153D054E0565
:100730005F0520F50E94BB02AFE3BCE91197F1F71A
:1007400000C000008FEF9FEFA1E0B0E08822992267
:10075000AA22BB22AA2011F480EA01C088EA0E94E2
:100760000502882369F4892D0E947002382E882D95
:100770000E9470028329802B31F013C0002319F0EE
:100780000E94BB020EC0812F90E0A0E0B0E08C156B
:100790009D05AE05BF0508F4A7CF0E94BB0280E00F
:1007A00001C087EDDF91CF911F910F91FF90EF90E6
:1007B000DF90CF90BF90AF909F908F907F906F9081
:1007C0005F904F903F9008953F924F925F926F924B
:1007D0007F928F929F92AF92BF92CF92DF92EF92D1
:1007E000FF920F931F93DF93CF9300D000D000D0E0
:1007F000CDB7DEB72B013C0159016A01902E66206E
:1008000011F400EA01C008EA802F0E940502882343
:1008100009F06BC0852D0E947002E82E842D0E9485
:100820007002E82A0E942A02E82A802F8F5F0E9425
:1008300039028E2909F08EC0492D512F5E834D83D8
:10084000D601C5010197A109B10989839A83AB83B8
:10085000BC8371C089819A81AB81BC81E816F9069D
:100860000A071B0731F40E94AA02AD81BE818C9356
:100870006DC0E40CF51C061D171DBFEFEB16BFEF96
:10088000FB06B0E00B07B0E01B0749F0EFEFEE16F8
:10089000EFEFFE06E1E00E07E0E01E07D9F50E944B
:1008A000AA02AD81BE818C930E94BB02EFE3FCE9FA
:1008B0003197F1F700C000000894E11CF11C011D04
:1008C000111D8FEF9FEFA1E0B0E0E822F9220A238B
:1008D0001B23002319F440EA342E02C038EA332ED9
:1008E000832D0E940502882319F00E94BB0232C0AA
:1008F0008F2D0E947002882E8E2D0E947002882AF1
:100900000E942A02882A832D8F5F0E94390288293B
:1009100031F020C00E949902AD81BE818C93EFE33B
:10092000FCE93197F1F700C000002D813E812F5F77
:100930003F4F3E832D83ED80E918FF2400E010E057
:10094000EA14FB040C051D0508F484CF0E94BB02C9
:1009500080E001C087ED26960FB6F894DEBF0FBE8B
:10096000CDBFCF91DF911F910F91FF90EF90DF905E
:10097000CF90BF90AF909F908F907F906F905F903F
:100980004F903F900895BF92CF92DF92EF92FF92E7
:100990000F931F93CF93DF937B018C01D42EC52E31
:1009A00057E0EE0CFF1C001F111F5A95D1F70023D2
:1009B00011F480EA01C088EA0E9405028823A9F4A4
:1009C0008F2D0E947002B82E8E2D0E9470028B29EE
:1009D00061F4C601E92EE7017E01FC2CE70110E07D
:1009E00089910E947002882321F00E94BB0287ED4A
:1009F00006C01F5F1038A1F70E94BB0280E0DF91A4
:100A0000CF911F910F91FF90EF90DF90CF90BF900B
:100A10000895CF92DF92EF92FF920F931F93CF939F
:100A2000DF937B018C01EA01E7E0EE0CFF1C001F65
:100A3000111FEA95D1F7002319F470EAC72E02C0FE
:100A400068EAC62E8C2D0E940502882319F00E94A8
:100A5000BB0223C08F2D0E947002D82E8E2D0E94C3
:100A60007002D82A0E942A02D82A8C2D8F5F0E94F9
:100A700039028D2991F47E011FE70E949902F70146
:100A800081937F011150C9F70E94AA02C158DF4F1C
:100A900088830E94BB0280E001C087EDDF91CF9187
:100AA0001F910F91FF90EF90DF90CF900895FF92EC
:100AB0000F931F93DF93CF930F92CDB7DEB7162F0F
:100AC000042F882311F480EA01C088EA79830E9408
:100AD00005027981882351F4872F0E947002F82E35
:100AE000812F0E9470028F29813021F40E94BB0265
:100AF00086ED12C0802F0E947002813021F40E9486
:100B0000BB0281E009C00E94BB028FE39CE9019710
:100B1000F1F700C0000080E00F90CF91DF911F91AE
:100B20000F91FF900895AF92BF92DF92EF92FF92E4
:100B30000F931F93DF93CF930F92CDB7DEB77B0157
:100B40008C01D42E642F752F5B010EC0F5014191ED
:100B50005F01C801B70129830E9457050894E11C71
:100B6000F11C011D111D29818A2D8D19821770F329
:100B700080E00F90CF91DF911F910F91FF90EF9048
:100B8000DF90BF90AF900895FF920F931F93DF9374
:100B9000CF930F92CDB7DEB7162F882319F4A0EAB2
:100BA000FA2E02C0F8EAFF2E8F2D79830E940502EB
:100BB00079818823D1F4872F0E947002082F812F1A
:100BC0000E947002082B0E942A02082B8F2D8F5F33
:100BD0000E943902802B813021F40E94BB0288EDF3
:100BE0000CC00E94AA02873D21F40E94BB0286ED40
:100BF00004C089830E94BB0289810F90CF91DF914D
:100C00001F910F91FF900895CF92DF92EF92FF9284
:100C10000F931F93DF93CF9300D0CDB7DEB77B0147
:100C20008C01E42FF52F6F0110C0C801B701298393
:100C30004A830E94C405F60181936F010894E11C68
:100C4000F11C011D111D4A8129818C2D841B8217E5
:100C500060F3822F0F900F90CF91DF911F910F9132
:100C6000FF90EF90DF90CF9008951F920F920FB6F4
:100C70000F9211242F933F938F939F938091820221
:100C8000833020F120918202809158028823F1F470
:100C900080916B0290916C0233E08032930750F4A4
:100CA00080916B0290916C02019690936C028093FC
:100CB0006B020CC010926C0210926B025E988091D5
:100CC000B100887F8093B100209382029F918F9121
:100CD0003F912F910F900FBE0F901F9018950E947B
:100CE000E3010895EAE7F0E087E08083808188608F
:100CF000808381E080937C0080938F02089585B586
:100D0000856085BD84B5826084BDEEE6F0E08081BB
:100D1000846080838CE987BD0895E0EBF0E08081FA
:100D200082608083E0E7F0E08081846080838CE9EA
:100D30008093B3000895609178007091790080E00D
:100D400090E00E94831B20E030E040EA50E40E94E3
:100D5000391C20E030E040E85AE30E94391C2AE0C8
:100D600037ED43E25CE30E94EA1A0895AF92BF9226
:100D7000CF92DF92EF92FF920F931F937B018C0132
:100D8000609178007091790080E090E00E94831B70
:100D900020E030E040EA50E40E94391C20E030E0DE
:100DA00040E85AE30E94391C20E030E040EA50E479
:100DB0000E94EA1A2AE037ED43E25EE30E94811ABC
:100DC0002FE539E24BEC5BE30E94EA1A5B016C0110
:100DD000C801B70129EC3EE84DE05BE30E94391CF5
:100DE0009B01AC0162E27DEF86E89FE30E94811ADD
:100DF0009B01AC01C601B5010E94EA1A1F910F9137
:100E0000FF90EF90DF90CF90BF90AF9008951F922A
:100E10000F920FB60F921124BF92CF92DF92EF92F2
:100E2000FF920F931F932F933F934F935F936F9373
:100E30007F938F939F93AF93BF93EF93FF93809193
:100E40008202823020F480917A0080610FC084B7E2
:100E500080939702F894B09082028091B201882327
:100E600041F01092B20180917A00806480937A0000
:100E700075C010918F02112391F1113009F068C0F3
:100E8000C0905902D0905A02E0905B02F0905C0250
:100E90000E949B066093590270935A0280935B02F2
:100EA00090935C022091590230915A0240915B026A
:100EB00050915C02C701B6010E94E61A882311F026
:100EC0001093730280917A00806480937A0010926C
:100ED0007C0010928F0281E08093B20139C0E090D3
:100EE0005D02F0905E0200915F02109160026091DD
:100EF000590270915A0280915B0290915C020E94AB
:100F0000B60660935D0270935E0280935F029093D9
:100F1000600220915D0230915E0240915F0250912B
:100F20006002C801B7010E94E61A882319F081E027
:100F30008093710281E080937C0080938F02809384
:100F4000B20180915002809351028AE08093500256
:100F500078948091970284BFB0928202FF91EF91C2
:100F6000BF91AF919F918F917F916F915F914F91C1
:100F70003F912F911F910F91FF90EF90DF90CF90B5
:100F8000BF900F900FBE0F901F9018950F931F9357
:100F9000CF93DF93809172028823A1F110927202A5
:100FA00040917F0230918002209181028DB79EB7DF
:100FB0000A970FB6F8949EBF0FBE8DBFEDB7FEB770
:100FC0003196C3EBD1E0ADB7BEB71296DC93CE93AA
:100FD000119780E091E09383828344831582368366
:100FE0001782208711860E94271EEDB7FEB73A961A
:100FF0000FB6F894FEBF0FBEEDBF80E060E0AE011B
:101000000E94D80180916F02882309F448C0109291
:101010006F0280917E0200D000D000D0EDB7FEB705
:101020003196C3EBD1E0ADB7BEB71296DC93CE9349
:10103000119700E111E013830283848315820E94DB
:10104000271EEDB7FEB736960FB6F894FEBF0FBE5B
:10105000EDBF8BE060E0AE010E94D80180917D027F
:1010600000D000D000D0EDB7FEB73196ADB7BEB717
:101070001296DC93CE931197138302838483158297
:101080000E94271EEDB7FEB736960FB6F894FEBF46
:101090000FBEEDBF8EE060E0AE010E94D8018091EE
:1010A0007302882309F440C01092730280915902A0
:1010B00090915A02A0915B02B0915C022DB73EB7AD
:1010C000285030400FB6F8943EBF0FBE2DBF4DB72D
:1010D0005EB74F5F5F4FC3EBD1E0EDB7FEB7D28392
:1010E000C18325E131E0FA01338322838483958330
:1010F000A683B7830E94271E2DB73EB7285F3F4FB8
:101100000FB6F8943EBF0FBE2DBF80E061E0AE0188
:101110000E94D8018FED61E00E94040185E061E04A
:101120004CE151E00E94D80180917102882309F4BA
:1011300069C01092710288E061E04FE151E00E94C5
:10114000D80160915D0270915E0280915F02909182
:10115000600226E636EE47EC52E40E94E61A23EBE4
:1011600031E087FF1BC080915D0290915E02A091EB
:101170005F02B09160024DB75EB7485050400FB665
:10118000F8945EBF0FBE4DBFEDB7FEB73196CDB739
:10119000DEB73A83298325E131E01AC080915D02F0
:1011A00090915E02A0915F02B09160024DB75EB770
:1011B000485050400FB6F8945EBF0FBE4DBFEDB71C
:1011C000FEB73196CDB7DEB73A83298323E231E00B
:1011D0003383228384839583A683B7830E94271E4B
:1011E000EDB7FEB738960FB6F894FEBF0FBEEDBF51
:1011F0008BE061E043EB51E00E94D8018AE291E08C
:101200000E946801DF91CF911F910F910895EAE745
:10121000F0E08081806C8083089580919C0286300C
:1012200009F4B0C0873009F4BAC0882309F005C1B9
:10123000809184028823B9F180E060E04CE251E0C3
:101240000E94D8011092520210925302109254023E
:101250001092550217C080E160E00E940401809165
:10126000520290915302A0915402B09155020196FE
:10127000A11DB11D8093520290935302A09354027A
:10128000B09355028091520290915302A091540262
:10129000B091550285309105A105B105E0F210929B
:1012A00084021092560280918502882309F4C5C0F9
:1012B00080915602882391F582E060E00E9404014B
:1012C0001092520210925302109254021092550240
:1012D00017C084E160E00E94040180915202909165
:1012E0005302A0915402B09155020196A11DB11D67
:1012F0008093520290935302A0935402B0935502EC
:101300008091520290915302A0915402B0915502E3
:101310008A309105A105B105E0F231C082E060E0BC
:101320000E94040110925202109253021092540231
:101330001092550217C084E160E00E940401809180
:10134000520290915302A0915402B091550201961D
:10135000A11DB11D8093520290935302A093540299
:10136000B09355028091520290915302A091540281
:10137000B09155028D309105A105B105E0F21092B2
:10138000850208959091560281E0911180E080934A
:10139000560281E08093850210929C02089580910C
:1013A0005602882331F081E0809350021092560259
:1013B0003FC0809150028530B9F0863018F48330F8
:1013C00049F505C08730E9F0893021F51FC08091CB
:1013D0008C0280937F0280918D02809380028091A5
:1013E0008E028093810216C08091890280937C02D4
:1013F00080918A0280937D0280918B0280937E028D
:1014000009C0809199028093860204C0809157029E
:101410008093980281E08093500260E00E94040172
:1014200082E060E00E9404018CE060E00E94040120
:1014300010929C0281E0809384020895FC018581D2
:10144000803298F48581882381F086818D3068F41C
:101450008681882351F08781843638F483818C33E8
:1014600030F4948181E0983118F080E0089580E0B4
:1014700008950F931F93DF93CF93CDB7DEB72E97C9
:101480000FB6F894DEBF0FBECDBF60E070E0CB01B9
:101490000E94C4058C8761E070E080E090E00E94CB
:1014A000C4058D8762E070E080E090E00E94C40592
:1014B0008E8763E070E080E090E00E94C4058A8738
:1014C00064E070E080E090E00E94C4058B8719869C
:1014D00018861F828E01095F1F4FC8010E941E0AD5
:1014E000EAE7F2E0882339F0D80188E00D90019214
:1014F0008150E1F737C084E080937F0285E08093DC
:1015000080028CE08093810210927B0210927A021A
:1015100012821382148240917F0260E070E0CB015E
:101520000E9457054091800261E070E080E090E009
:101530000E9457054091810262E070E080E090E0F7
:101540000E94570540917D0263E070E080E090E0EA
:101550000E94570540917E0264E070E080E090E0D8
:101560000E94570567E070E080E090E00E94C405AB
:10157000082F65E070E080E090E0AE014F5F5F4FC4
:1015800022E00E94040668E070E080E090E0AE0196
:101590004D5F5F4F24E00E940406033058F0109224
:1015A00090024091900267E070E080E090E00E943D
:1015B000570502C00093900289819A819093950209
:1015C000809394028B819C81AD81BE819C01AD0191
:1015D0002C50304040405040243F6FEF360761E0D0
:1015E000460760E05607B0F08CE090E0A0E0B0E085
:1015F0008093750290937602A0937702B09378025D
:1016000068E070E080E090E045E752E024E00E946E
:10161000930508C08093750290937602A093770299
:10162000B09378022E960FB6F894DEBF0FBECDBFF2
:10163000CF91DF911F910F910895FC019481238137
:101640008CE3989FC0011124820F911D60ED72E020
:101650000E94A81C9C0181E02115310509F080E061
:101660000895282F837081F4822F64E60E949C1CC9
:10167000992361F4822F60E971E00E94A81C9C010B
:1016800081E02115310519F080E0089581E0089589
:101690001F920F920FB60F9211241F932F933F9317
:1016A0004F935F936F937F938F939F93AF93BF936A
:1016B000EF93FF9380918202882309F451C1109126
:1016C000820221E02093820289B18093930280916B
:1016D0009302847080939202809193028071809330
:1016E000790280919302887080939B0280919B0283
:1016F0008823B9F480919A02882399F48091650235
:1017000090916602019690936602809365028091A3
:1017100065029091660285369105B8F120939A0290
:1017200034C080919B02882311F010929A0280911C
:101730006502909166028730910528F41092660246
:101740001092650222C080916502909166028830F5
:10175000910568F08091650290916602843691054A
:1017600030F4109266021092650286E00CC08091FF
:101770006502909166028536910538F010926602F6
:101780001092650287E080939C02809192028823E8
:1017900089F48091610290916202019690936202B5
:1017A000809361028091610290916202843291057E
:1017B00078F007C0809161029091620287309105B4
:1017C00018F082E080939C021092620210926102F3
:1017D00080917902882389F4809163029091640258
:1017E00001969093640280936302809163029091CA
:1017F00064028432910578F007C080916302909171
:1018000064028730910518F084E080939C02109266
:1018100064021092630280919202882371F4809195
:101820007902882351F480916702909168020196B1
:1018300090936802809367020EC080916702909136
:1018400068028730910518F088E080939C0210921E
:1018500068021092670280917A0290917B0283362F
:10186000910550F480917A0290917B0201969093B9
:101870007B0280937A0272C010927B0210927A02ED
:1018800080917C028B3348F480917C028F5F80933F
:101890007C0281E08093740261C010927C0280918E
:1018A0007D028B3330F480917D028F5F80937D02C7
:1018B00047C010927D0280917E02873130F4809182
:1018C0007E028F5F80937E023BC010927E029091D9
:1018D0007F02E0918002F0E0ED5BFD4F8081981780
:1018E000C0F480917F028F5F80937F0280917F029E
:1018F0008D3119F5809180028230F9F48091810256
:101900000E94310B8823C9F481E080937F0283E039
:101910000AC081E080937F02909180029C3030F475
:10192000809180028F5F8093800207C08093800245
:10193000809181028F5F8093810281E080937202A7
:1019400081E080936F028AE792E00E941D0B88235A
:1019500029F080917A00806C80937A001093820243
:10196000FF91EF91BF91AF919F918F917F916F9177
:101970005F914F913F912F911F910F900FBE0F904C
:101980001F9018950F931F93CF93DF93EC018B015A
:101990009D81EE81F0E03197E60FF71F8081981767
:1019A000C8F08E81823069F48F810E94310B8823C8
:1019B00041F4EE81F0E03197E00FF11F808181501A
:1019C00006C0EE81F0E03197E00FF11F80818D833A
:1019D00081E001C080E0DF91CF911F910F910895C8
:1019E00080917002882349F08DE060E04CE351E083
:1019F0000E94D8011092700208958DE060E04EE3DD
:101A000051E00E94D80181E080937002089581E046
:101A100060E00E94040181E08093720280936F0273
:101A200080937102809373020E94C60708958823F1
:101A300019F080E00E9430010E94070D089581E0B6
:101A40008093720280938402569A8CE18BB90E9433
:101A50006F060E94390A0E94720681E00E94170DEB
:101A60000E947F060E948D06789408954F925F929F
:101A70006F927F928F929F92AF92BF92CF92DF929E
:101A8000EF92FF920F931F93CF93DF9389E08093A0
:101A900082020E941F0D5E9AC3EBD1E000E111E0CB
:101AA000A3E6BA2EF9E07F2EECE78E2EE1E09E2E23
:101AB00072E4E72E71E0F72E6CE0662E5CE1552EA5
:101AC00048E0442E3FE5C32E31E0D32E2BE3A22E77
:101AD00080915002853011F40C94E015863088F422
:101AE000823009F4E8C0833028F48823F1F0813093
:101AF00079F747C0833011F40C94E015843041F736
:101B0000B4C3883009F421C7893038F4863009F429
:101B1000E1C58730E9F60C94E015893011F40C9496
:101B2000E0158A30A9F60C94E41580919C02873068
:101B300028F4823088F4882321F0CACF873041F618
:101B400012C080917402882321F00E94F00C109240
:101B500074020E94C60785C35E988091B100887F99
:101B60008093B100A1C091E0909350025E98809163
:101B7000B100887F8093B1005E9A909358020C94D4
:101B8000DC1580919C02843009F449C0853030F422
:101B9000882359F0823009F09BCF3DC0863009F48C
:101BA00054C0873009F094CF63C0809183028823AA
:101BB00029F480918402882309F48ACF1092840248
:101BC0001092830280E060E040E451E00E94D8017E
:101BD0004091910250E094E0440F551F9A95E1F72F
:101BE0004C535E4F81E060E00E94D80180E061E0EC
:101BF0004EE351E00E94D8014091910250E084E010
:101C0000440F551F8A95E1F74C525E4F81E061E029
:101C10000E94D8015DCF809191028F5F09C08091B1
:101C20009102882321F080919102815001C086E0C9
:101C3000809391028091910267E00E949C1C909396
:101C4000910281E080938302B7C780919102813035
:101C500061F0813040F0823009F4FFC2833009F036
:101C600000C384E0FAC286E0F8C240925002F7C294
:101C70001092500281E060E00E94040182E060E086
:101C80000E9404018CE060E00E9404011092910225
:101C900081E08093720280936F028093730280933D
:101CA0007102109258025E985E9A8091B10087602E
:101CB0008093B10081C780919C02843009F43DC1BA
:101CC000853030F4882359F0823009F001CF83C089
:101CD000863009F4E4C1873009F0FACEBDC28091A4
:101CE0008402882309F4F4CE1092840281E060E03B
:101CF0000E940401A7E8B2E0EAE7F2E088E0019080
:101D00000D928150E1F720918C0290918D0280918B
:101D10008E024DB75EB74A5050400FB6F8945EBF82
:101D20000FBE4DBFEDB7FEB73196ADB7BEB7129639
:101D3000DC93CE931197F382E282248315829683FB
:101D40001782808711860E94271E2DB73EB7265F17
:101D50003F4F0FB6F8943EBF0FBE2DBF80E060E04E
:101D600041E551E00E94D80183E061E0AE010E94AC
:101D7000D8018EE060E00E9404011092520210929D
:101D80005302109254021092550217C080E160E095
:101D90000E9404018091520290915302A09154023A
:101DA000B09155020196A11DB11D809352029093EE
:101DB0005302A0935402B093550280915202909125
:101DC0005302A0915402B091550287309105A105AC
:101DD000B105E0F27DCE80915602813049F181302B
:101DE00018F08230E1F530C080918C028F5F8093D3
:101DF0008C0290918C02E0918D02F0E0ED5BFD4F42
:101E00008081891718F481E080938C0280918D0283
:101E1000823029F580918E020E94310B8823F9F4DB
:101E200080918C028D31D9F481E080938C0217C0AF
:101E300090918D029F5F90938D0290918D029D30C5
:101E400040F080938D0205C080918E028F5F809359
:101E50008E0287E892E064E472E00E94C20C209156
:101E60008C0290918D0280918E024DB75EB74A50E0
:101E700050400FB6F8945EBF0FBE4DBFEDB7FEB732
:101E80003196ADB7BEB71296DC93CE931197F3821D
:101E9000E2822483158296831782808711860E94AE
:101EA000271E2DB73EB7265F3F4F0FB6F8943EBFB3
:101EB0000FBE2DBF83E061E0AE010E94D8011092F9
:101EC000520210925302109254021092550217C0FF
:101ED00080E160E00E9404018091520290915302DF
:101EE000A0915402B09155020196A11DB11D80939D
:101EF000520290935302A0935402B0935502209142
:101F00005202309153024091540250915502609117
:101F1000560270E0CB01880F991F860F971F90958E
:101F200081959F4F0796AA2797FDA095BA2F28174E
:101F300039074A075B0760F23FC68091560281303D
:101F400019F1813018F08230E1F52AC080918C02BD
:101F5000815080938C0280918C02882391F5E091CE
:101F60008D02F0E0ED5BFD4F808180938C028091CB
:101F70008D02823031F580918E020E94310B8823D0
:101F800001F550928C021DC080918D02815080938A
:101F90008D0280918D02882371F460928D020BC0B6
:101FA00080918E02815080938E0280918E028823D0
:101FB00011F4B0928E0287E892E064E472E00E942D
:101FC000C20C20918C0290918D0280918E024DB7AF
:101FD0005EB74A5050400FB6F8945EBF0FBE4DBF7B
:101FE000EDB7FEB73196ADB7BEB71296DC93CE9380
:101FF0001197F382E2822483158296831782808769
:1020000011860E94271E2DB73EB7265F3F4F0FB6A1
:10201000F8943EBF0FBE2DBF83E061E0AE010E9489
:10202000D801109252021092530210925402109250
:10203000550217C080E160E00E94040180915202C5
:1020400090915302A0915402B09155020196A11DA6
:10205000B11D8093520290935302A0935402B09307
:1020600055022091520230915302409154025091F6
:1020700055026091560270E0CB01880F991F860FC0
:10208000971F909581959F4F0796AA2797FDA0953A
:10209000BA2F281739074A075B0760F28DC5809170
:1020A0005602823098F5109252021092530210920A
:1020B00054021092550217C084E160E00E940401AE
:1020C0008091520290915302A0915402B091550216
:1020D0000196A11DB11D8093520290935302A093CB
:1020E0005402B09355028091520290915302A091F4
:1020F0005402B091550283309105A105B105E0F27B
:10210000809156028F5F809356022FC01092560224
:1021100010925202109253021092540210925502E1
:1021200017C080E160E00E9404018091520290910A
:102130005302A0915402B09155020196A11DB11D08
:102140008093520290935302A0935402B09355028D
:102150008091520290915302A0915402B091550285
:1021600086309105A105B105E0F287E892E064E4CC
:1021700072E00E94C20C882309F41EC520918C02D3
:1021800090918D0280918E024DB75EB74A505040BB
:102190000FB6F8945EBF0FBE4DBFEDB7FEB73196D8
:1021A000ADB7BEB71296DC93CE931197F382E2825D
:1021B0002483158296831782808711860E94271EAA
:1021C0002DB73EB7265F3F4F0FB6F8943EBF0FBE08
:1021D0002DBF83E061E0AE010E94D801109252024F
:1021E00010925302109254021092550217C080E1CF
:1021F00060E00E9404018091520290915302A091EC
:102200005402B09155020196A11DB11D8093520256
:1022100090935302A0935402B0935502209152021E
:1022200030915302409154025091550260915602F0
:1022300070E0CB01880F991F860F971F90958195AD
:102240009F4F0796AA2797FDA095BA2F2817390701
:102250004A075B0760F2B0C483E08093500210929B
:102260009C0281E08093840233CC80919C02843074
:1022700009F42AC1853030F4882359F0823009F0FE
:1022800027CC83C0863009F4BCC1873009F020CC4C
:102290001FC280918402882309F41ACC1092840210
:1022A00081E060E00E940401A7E8B2E0EAE7F2E022
:1022B00088E001900D928150E1F720918B0290917E
:1022C0008A02809189024DB75EB74A5050400FB6DE
:1022D000F8945EBF0FBE4DBFEDB7FEB73196ADB7F8
:1022E000BEB71296DC93CE931197D382C282248319
:1022F000158296831782808711860E94271E2DB72C
:102300003EB7265F3F4F0FB6F8943EBF0FBE2DBFBE
:1023100080E060E04EE651E00E94D80183E061E099
:10232000AE010E94D8018EE060E00E94040110928C
:10233000520210925302109254021092550217C08A
:1023400080E160E00E94040180915202909153026A
:10235000A0915402B09155020196A11DB11D809328
:10236000520290935302A0935402B093550280916D
:10237000520290915302A0915402B09155028730BD
:102380009105A105B105E0F2A3CB10929C028091CA
:102390005602813091F0813018F0823039F51AC040
:1023A00080918B028F5F80938B0280918B0268E11A
:1023B0000E949C1C90938B0219C080918A028F5FAF
:1023C00080938A0280918A026CE30E949C1C909305
:1023D0008A020CC0809189028F5F8093890280916C
:1023E00089026CE30E949C1C9093890220918B02CD
:1023F00090918A02809189024DB75EB74A50504051
:102400000FB6F8945EBF0FBE4DBFEDB7FEB7319665
:10241000ADB7BEB71296DC93CE931197D382C2822A
:102420002483158296831782808711860E94271E37
:102430002DB73EB7265F3F4F0FB6F8943EBF0FBE95
:102440002DBF83E061E0AE010E94D80110925202DC
:1024500010925302109254021092550217C080E15C
:1024600060E00E9404018091520290915302A09179
:102470005402B09155020196A11DB11D80935202E4
:1024800090935302A0935402B093550220915202AC
:10249000309153024091540250915502609156027E
:1024A00070E0CB01880F991F860F971F909581953B
:1024B0009F4F0796AA2797FDA095BA2F281739078F
:1024C0004A075B0760F204CB10929C02809156028F
:1024D000813091F0813018F0823029F519C0809157
:1024E0008B02815080938B0280918B028931D8F0CE
:1024F00087E180938B0217C080918A02815080937C
:102500008A0280918A028D3370F0A0928A020BC0F9
:1025100080918902815080938902809189028D3354
:1025200010F0A092890220918B0290918A028091F2
:1025300089024DB75EB74A5050400FB6F8945EBF5F
:102540000FBE4DBFEDB7FEB73196ADB7BEB7129611
:10255000DC93CE931197D382C28224831582968313
:102560001782808711860E94271E2DB73EB7265FEF
:102570003F4F0FB6F8943EBF0FBE2DBF83E061E022
:10258000AE010E94D8011092520210925302109292
:1025900054021092550217C080E160E00E940401CD
:1025A0008091520290915302A0915402B091550231
:1025B0000196A11DB11D8093520290935302A093E6
:1025C0005402B0935502209152023091530240912F
:1025D0005402509155026091560270E0CB01880F71
:1025E000991F860F971F909581959F4F0796AA2751
:1025F00097FDA095BA2F281739074A075B0760F2A5
:1026000067CA80915602823098F510925202109259
:102610005302109254021092550217C084E160E0F8
:102620000E9404018091520290915302A0915402A1
:10263000B09155020196A11DB11D80935202909355
:102640005302A0935402B09355028091520290918C
:102650005302A0915402B091550283309105A10517
:10266000B105E0F2809156028F5F80935602A4C2BA
:10267000109256021092520210925302109254027B
:102680001092550217C080E160E00E940401809121
:10269000520290915302A0915402B09155020196BA
:1026A000A11DB11D8093520290935302A093540236
:1026B000B09355028091520290915302A09154021E
:1026C000B091550286309105A105B105E0F274C2C2
:1026D00085E0C3CD80919C02823009F47DC08330B7
:1026E00018F4882341F0F4C9843009F4CDC0873050
:1026F00009F0EEC921C180918402882309F4E8C958
:102700001092840281E060E00E94040180918602C0
:1027100080939902909186024DB75EB74850504021
:102720000FB6F8945EBF0FBE4DBFEDB7FEB7319642
:10273000ADB7BEB71296DC93CE9311979382828287
:1027400094831582868317820E94271E2DB73EB779
:10275000285F3F4F0FB6F8943EBF0FBE2DBF80E0FD
:1027600060E041E951E00E94D80180E061E0AE0103
:102770000E94D8018EE060E00E9404011092520293
:1027800010925302109254021092550217C080E129
:1027900060E00E9404018091520290915302A09146
:1027A0005402B09155020196A11DB11D80935202B1
:1027B00090935302A0935402B09355028091520219
:1027C00090915302A0915402B0915502843091052A
:1027D000A105B105E0F27CC9809199028F5F8093D9
:1027E0009902843610F01092990200D000D000D0E7
:1027F000EDB7FEB73196ADB7BEB71296DC93CE9368
:1028000011971383028380919902848315820E9419
:10281000271E2DB73EB72A5F3F4F0FB6F8943EBF35
:102820000FBE2DBF8BE061E0AE010E94D801109277
:10283000520210925302109254021092550217C085
:1028400080E160E00E940401809152029091530265
:10285000A0915402B09155020196A11DB11D809323
:10286000520290935302A0935402B0935502809168
:10287000520290915302A0915402B09155020097D8
:10288000A105B105E9F298C1809199028150809328
:102890009902853610F0B092990200D000D000D095
:1028A000EDB7FEB73196ADB7BEB71296DC93CE93B7
:1028B00011971383028380919902848315820E9469
:1028C000271E2DB73EB72A5F3F4F0FB6F8943EBF85
:1028D0000FBE2DBF8BE061E0AE010E94D8011092C7
:1028E000520210925302109254021092550217C0D5
:1028F00080E160E00E9404018091520290915302B5
:10290000A0915402B09155020196A11DB11D809372
:10291000520290935302A0935402B09355028091B7
:10292000520290915302A0915402B0915502009727
:10293000A105B105E9F240C18093500283EB91E01B
:1029400061EA71E00E94E91D34C180919C028230ED
:1029500009F47DC0833018F4882341F0B9C884306D
:1029600009F4CDC0873009F0B3C821C18091840239
:10297000882309F4ADC81092840281E060E00E94CF
:1029800004018091980280935702909198024DB76C
:102990005EB7485050400FB6F8945EBF0FBE4DBFB3
:1029A000EDB7FEB73196ADB7BEB71296DC93CE93B6
:1029B00011979382828294831582868317820E9464
:1029C000271E2DB73EB7285F3F4F0FB6F8943EBF86
:1029D0000FBE2DBF80E060E042EA51E00E94D801C6
:1029E00080E061E0AE010E94D8018EE060E00E94CC
:1029F000040110925202109253021092540210924B
:102A0000550217C080E160E00E94040180915202EB
:102A100090915302A0915402B09155020196A11DCC
:102A2000B11D8093520290935302A0935402B0932D
:102A300055028091520290915302A0915402B0919C
:102A4000550284309105A105B105E0F241C880919D
:102A500057028F5F80935702843610F0109257020E
:102A600000D000D000D0EDB7FEB73196ADB7BEB7FD
:102A70001296DC93CE9311971383028380915702B1
:102A8000848315820E94271E2DB73EB72A5F3F4FD1
:102A90000FB6F8943EBF0FBE2DBF8BE061E0AE01D4
:102AA0000E94D801109252021092530210925402C6
:102AB0001092550217C080E160E00E9404018091ED
:102AC000520290915302A0915402B0915502019686
:102AD000A11DB11D8093520290935302A093540202
:102AE000B09355028091520290915302A0915402EA
:102AF000B09155020097A105B105E9F25DC0809142
:102B00005702815080935702853610F0B0925702D9
:102B100000D000D000D0EDB7FEB73196ADB7BEB74C
:102B20001296DC93CE931197138302838091570200
:102B3000848315820E94271E2DB73EB72A5F3F4F20
:102B40000FB6F8943EBF0FBE2DBF8BE061E0AE0123
:102B50000E94D80110925202109253021092540215
:102B60001092550217C080E160E00E94040180913C
:102B7000520290915302A0915402B09155020196D5
:102B8000A11DB11D8093520290935302A093540251
:102B9000B09355028091520290915302A091540239
:102BA000B09155020097A105B105E9F205C07092F8
:102BB000500281E08093840210929C020C94680D74
:102BC0000E940D090C94680D80919002882309F0F1
:102BD0004EC060917502709176028091770290915B
:102BE00078029B01AC012F5F3F4F4F4F5F4F209307
:102BF00075023093760240937702509378024091A9
:102C00007F020E9457056091750270917602809153
:102C10007702909178029B01AC012F5F3F4F4F4F9D
:102C20005F4F209375023093760240937702509362
:102C30007802409180020E94570560917502709160
:102C4000760280917702909178029B01AC012F5F10
:102C50003F4F4F4F5F4F2093750230937602409362
:102C6000770250937802409181020E94570560914B
:102C700075027091760280917702909178024DE50D
:102C800052E024E00E9493058091750290917602B3
:102C9000A0917702B09178020496A11DB11D809396
:102CA000750290937602A0937702B09378026091B8
:102CB000750270917602809177029091780249E5D1
:102CC00052E024E00E949305809175029091760273
:102CD000A0917702B09178020496A11DB11D809356
:102CE000750290937602A0937702B0937802809158
:102CF00090028F5F8093900280919002823058F111
:102D00001092900280919402909195020196909376
:102D100095028093940240917F0260E070E0CB01C5
:102D20000E9457054091800261E070E080E090E0F1
:102D30000E9457054091810262E070E080E090E0DF
:102D40000E94570565E070E080E090E044E952E0C1
:102D500022E00E9493054091900267E070E080E0DD
:102D600090E00E94570568E070E080E090E045E761
:102D700052E024E00E94930540917D0263E070E000
:102D800080E090E00E94570540917E0264E070E090
:102D900080E090E00E94570580915102809350029C
:102DA0000C94680DEF92FF920F931F93CF93DF93D4
:102DB0007B018C010E94521BEB01BE01882777FD2D
:102DC0008095982F0E94851B9B01AC01C801B7011B
:102DD0000E94811A20E030E040E05FE30E94351C51
:102DE00018160CF42196CE01DF91CF911F910F910F
:102DF000FF90EF900895A3E1B0E0E1E0F7E10C94DB
:102E0000BB1C6C017F876E87FC0117821682838151
:102E100081FD04C06FC34C855D8504C01E0108940C
:102E2000211C311CF6019381EE85FF8593FD859170
:102E300093FF8191FF87EE87882309F457C385327A
:102E400041F493FD859193FF8191FF87EE87853251
:102E500059F490E0B6014A8B5B8B0E94FB1D4A89B6
:102E60005B895D874C87D7CF10E0FF2400E00032FC
:102E7000B0F48B3269F08C3228F4803251F0833216
:102E800071F40BC08D3239F0803349F401602CC0ED
:102E90000260046029C0086027C0006125C007FDEA
:102EA0002EC0282F20532A3098F406FF08C0812F07
:102EB000880F182F110F110F180F120F15C08F2D1B
:102EC000880FF82EFF0CFF0CF80EF20E00620CC0FB
:102ED0008E3221F406FD0AC3006406C08C3611F45C
:102EE000006802C0883659F4EE85FF8593FD859110
:102EF00093FF8191FF87EE87882309F0B8CF982F41
:102F00009554933018F40061805E06C0982F955652
:102F1000933008F09BC10F7E06FF16E06FE3E62EAC
:102F2000E022853619F4F0E4EF2A07C0863619F45A
:102F300020E8E22A02C011111150E7FE06C01C333E
:102F400040F4912E939427E00BC0183030F4212FD9
:102F500006C027E03CE3932E03C027E017E0992446
:102F6000CA0104969D878C87FA01608171818281F4
:102F70009381A101092D0E94061D5C016980262D07
:102F800030E0398B288B60FE03C0388933FF06C0E0
:102F9000E1FC06C0E2FE06C000E205C00DE203C08F
:102FA0000BE201C000E0888999898C7090700097CD
:102FB000C1F1002311F084E001C083E08F1558F4C3
:102FC000F81AE3FC09C080E290E0B6010E94FB1D04
:102FD000FA94C9F701C0FF24002329F0802F90E064
:102FE000B6010E94FB1D888983FD03C00CE610E03A
:102FF0000EC008E610E00BC0A114B10409F0805225
:1030000090E0B6010E94FB1D0F5F1F4F05C0AE2C64
:10301000BB2490E1A922BB24F8018491882361F7A5
:1030200062C2E7FE0EC09A0CF889F4FF04C08A81E0
:10303000813309F49A94191454F5292D293050F547
:103040002DC0E6FC2BC0812F90E08A159B054CF02B
:103050003CEFA3163FEFB30624F080E8E82A01C056
:103060001150112349F0E2E0F0E0EC0FFD1FE10FF9
:10307000F11D80818033A1F3E7FE10C0912E93945F
:10308000812F90E0A816B90644F41A1907C09924B4
:10309000939404C098E0992E01C010E0E7FE07C0A9
:1030A0001A141B043CF495012F5F3F4F05C025E027
:1030B00030E002C021E030E0002311F02F5F3F4FED
:1030C000112329F0812F90E00196280F391F8F2DB1
:1030D00090E02817390714F4F21A01C0FF244E2C8F
:1030E0005524C20189709070009749F406C080E2AF
:1030F00090E0B6010E94FB1DFA94FF20C1F7002367
:1031000029F0802F90E0B6010E94FB1D43FC09C00E
:1031100006C080E390E0B6010E94FB1DFA94FF20F8
:10312000C1F7E7FE46C03501B7FE02C0662477242A
:1031300025010894411C511C46185708420C531C89
:10314000F501E919F1094F01812F90E000271127BE
:10315000081B190BFFEF6F16FFEF7F0629F48EE2B5
:1031600090E0B6010E94FB1DA614B70434F086144B
:1031700097041CF4F201808101C080E30894610887
:1031800071080894411C511C601671062CF090E0E7
:10319000B6010E94FB1DDECF6A147B0441F49A81C4
:1031A000963320F4953319F4F889F4FF81E390E025
:1031B00049C08A81813311F02FEE622290E0B6017E
:1031C0000E94FB1D112389F08EE290E0B6010E945F
:1031D000FB1D02E0F101E00FF11D0F5F808190E027
:1031E000B6010E94FB1D1150A9F744FE03C085E4FF
:1031F00090E002C085E690E0B6010E94FB1DB7FC9E
:1032000005C0A114B10441F464FE06C0B094A194B9
:10321000B108B3948DE201C08BE290E0B6010E9448
:10322000FB1D80E305C08F5FE6EFFFEFAE0EBF1E14
:10323000FAE0AF16B104BCF790E0B6010E94FB1DA6
:10324000C501C096B6010E94FB1D4DC1833631F009
:10325000833789F0833509F059C022C09A012E5F67
:103260003F4F3D872C87FA0180818983310181E0BE
:10327000A82EB12C13C09A012E5F3F4F3D872C879B
:10328000FA016080718006FF03C0612F70E002C008
:103290006FEF7FEFC3010E94F01D5C010F7714C038
:1032A0009A012E5F3F4F3D872C87FA016080718025
:1032B00006FF03C0612F70E002C06FEF7FEFC30114
:1032C0000E94DE1D5C01006803FD1CC006C080E298
:1032D00090E0B6010E94FB1DFA948F2D90E0A81695
:1032E000B906A8F30FC0F30107FD859107FF81918F
:1032F0003F0190E0B6010E94FB1DF110FA94089482
:10330000A108B108A114B10471F7EDC0843611F021
:10331000893661F507FF0BC09A012C5F3F4F3D874F
:103320002C87FA0160817181828193810CC09A019E
:103330002E5F3F4F3D872C87FA016081718188277E
:1033400077FD8095982F0F7697FF08C09095809510
:10335000709561957F4F8F4F9F4F0068A1012AE0C4
:1033600030E00E944A1E982E921841C0853721F401
:103370000F7E2AE030E020C0097F8F36A9F0803729
:1033800020F4883509F0B2C00BC0803721F08837AF
:1033900009F0ACC001C0006104FF09C0046007C0AF
:1033A00004FF08C0066006C028E030E005C020E148
:1033B00030E002C020E132E007FF0AC0CA010496F3
:1033C0009D878C87FA01608171818281938109C018
:1033D000CA0102969D878C87FA016081718180E025
:1033E00090E0A1010E944A1E982E92180F7706FFC6
:1033F00009C00E7F911630F404FF06C002FD04C020
:103400000F7E02C0E92C01C0E12E802F90E004FF66
:103410000CC0FE01E90DF11D2081203311F4097E5D
:1034200009C0E39402FF06C004C08678907000973C
:1034300009F0E394A02EBB2403FD14C000FF0FC0CD
:10344000EF1428F4192D1F0D1E19EF2C08C0192D8B
:1034500006C080E290E0B6010E94FB1DE394EF14E9
:10346000C0F304C0EF1410F4FE1801C0FF24A4FE42
:103470000FC080E390E0B6010E94FB1DA2FE1FC0BA
:10348000A1FE03C088E590E010C088E790E00DC081
:10349000C50186789070009791F0A1FC02C080E28F
:1034A00001C08BE207FD8DE290E0B6010E94FB1D9A
:1034B00006C080E390E0B6010E94FB1D11509116FA
:1034C000C0F39A94F101E90DF11D808190E0B601FD
:1034D0000E94FB1D9920A9F706C080E290E0B6018A
:1034E0000E94FB1DFA94FF20C1F795CCF6012681BE
:1034F000378102C02FEF3FEFC9016396E2E10C94E0
:10350000D71C5058BB27AA270ED075C166D130F002
:103510006BD120F031F49F3F11F41EF45BC10EF427
:10352000E095E7FB51C1E92F77D180F3BA17620725
:1035300073078407950718F071F49EF58FC10EF498
:10354000E0950B2EBA2FA02D0B01B90190010C01B3
:10355000CA01A0011124FF27591B99F0593F50F4CB
:10356000503E68F11A16F040A22F232F342F442723
:10357000585FF3CF469537952795A795F04053951B
:10358000C9F77EF41F16BA0B620B730B840BBAF0EB
:103590009150A1F0FF0FBB1F661F771F881FC2F756
:1035A0000EC0BA0F621F731F841F48F4879577956A
:1035B0006795B795F7959E3F08F0B3CF9395880F21
:1035C00008F09927EE0F979587950895D9D008F4BC
:1035D00081E008950CD00FC107D140F0FED030F04B
:1035E00021F45F3F19F0F0C0511139C1F3C014D17B
:1035F00098F39923C9F35523B1F3951B550BBB27BA
:10360000AA2762177307840738F09F5F5F4F220F66
:10361000331F441FAA1FA9F333D00E2E3AF0E0E85F
:1036200030D091505040E695001CCAF729D0FE2FAB
:1036300027D0660F771F881FBB1F2617370748073D
:10364000AB07B0E809F0BB0B802DBF01FF279358F3
:103650005F4F2AF09E3F510568F0B6C000C15F3F42
:10366000ECF3983EDCF3869577956795B795F795DB
:103670009F5FC9F7880F911D9695879597F90895D3
:10368000E1E0660F771F881FBB1F6217730784076F
:10369000BA0720F0621B730B840BBA0BEE1F88F77E
:1036A000E095089504D06894B111D9C00895BCD0B4
:1036B00088F09F5790F0B92F9927B751A0F0D1F01B
:1036C000660F771F881F991F1AF0BA95C9F712C0A5
:1036D000B13081F0C3D0B1E00895C0C0672F782F1A
:1036E0008827B85F39F0B93FCCF386957795679511
:1036F000B395D9F73EF490958095709561957F4F7D
:103700008F4F9F4F0895E89409C097FB3EF4909522
:103710008095709561957F4F8F4F9F4F9923A9F0AA
:10372000F92F96E9BB279395F69587957795679539
:10373000B795F111F8CFFAF4BB0F11F460FF1BC07D
:103740006F5F7F4F8F4F9F4F16C0882311F096E910
:1037500011C0772321F09EE8872F762F05C06623BE
:1037600071F096E8862F70E060E02AF09A95660F77
:10377000771F881FDAF7880F9695879597F9089530
:10378000990F0008550FAA0BE0E8FEEF1616170672
:10379000E807F907C0F012161306E407F50798F0DA
:1037A000621B730B840B950B39F40A2661F0232BF3
:1037B000242B252B21F408950A2609F4A140A6956F
:1037C0008FEF811D811D089597F99F6780E870E054
:1037D00060E008959FEF80EC089500240A94161687
:1037E000170618060906089500240A9412161306EF
:1037F000140605060895092E0394000C11F488237D
:1038000052F0BB0F40F4BF2B11F460FF04C06F5F98
:103810007F4F8F4F9F4F089557FD9058440F551F6E
:1038200059F05F3F71F04795880F97FB991F61F042
:103830009F3F79F087950895121613061406551FB9
:10384000F2CF4695F1DF08C0161617061806991F25
:10385000F1CF86957105610508940895E894BB271A
:1038600066277727CB0197F908958ADF08F48FEF51
:1038700008950BD0C0CFB1DF28F0B6DF18F0952344
:1038800009F0A2CFA7CF1124EACFC6DFA0F3959FFE
:10389000D1F3950F50E0551F629FF001729FBB2737
:1038A000F00DB11D639FAA27F00DB11DAA1F649FE3
:1038B0006627B00DA11D661F829F2227B00DA11D96
:1038C000621F739FB00DA11D621F839FA00D611D1C
:1038D000221F749F3327A00D611D231F849F600D3D
:1038E000211D822F762F6A2F11249F5750408AF076
:1038F000E1F088234AF0EE0FFF1FBB1F661F771F02
:10390000881F91505040A9F79E3F510570F05CCF41
:10391000A6CF5F3FECF3983EDCF3869577956795ED
:10392000B795F795E7959F5FC1F7FE2B880F911D1F
:103930009695879597F90895991B79E004C0991F8A
:10394000961708F0961B881F7A95C9F780950895F9
:1039500097FB092E07260AD077FD04D043D006D066
:1039600000201AF4709561957F4F0895F6F79095B1
:1039700081959F4F08952F923F924F925F926F9241
:103980007F928F929F92AF92BF92CF92DF92EF92EF
:10399000FF920F931F93CF93DF93CDB7DEB7CA1B70
:1039A000DB0B0FB6F894DEBF0FBECDBF09942A889B
:1039B000398848885F846E847D848C849B84AA8443
:1039C000B984C884DF80EE80FD800C811B81AA81D0
:1039D000B981CE0FD11D0FB6F894DEBF0FBECDBF9B
:1039E000ED010895AA1BBB1B51E107C0AA1FBB1F15
:1039F000A617B70710F0A61BB70B881F991F5A957B
:103A0000A9F780959095BC01CD010895283008F064
:103A100027E03327DA01990F311D87FD9160009669
:103A20006105710539F432602E5F3D9330E32A95CC
:103A3000E1F708959F3F30F080387105610509F086
:103A40003C5F3C5F3D93913008F08068911DDF93AF
:103A5000CF931F930F93FF92EF92192F987F969514
:103A6000E92F96959695E90FFF27E653FF4F992783
:103A70003327EE24FF24A701E7010590089407945B
:103A800028F4360FE71EF81E491F511D660F771FD9
:103A9000881F991F0694A1F70590079428F4E70E54
:103AA000F81E491F561FC11D770F881F991F661FDB
:103AB0000694A1F70590079428F4F80E491F561FA5
:103AC000C71FD11D880F991F661F771F0694A1F786
:103AD0000590079420F4490F561FC71FD81F990F50
:103AE000661F771F881F0694A9F784911095177099
:103AF00041F0D695C79557954795F794E7941A9551
:103B0000C1F7E0E7F0E06894159015913591659163
:103B1000959105907FE27395E118F10A430B560BDE
:103B2000C90BD009C0F7E10CF11E431F561FC91F76
:103B3000D01D7EF4703311F48A95E6CFE8940150DD
:103B400030F0080F0AF40027021708F4202F2395FD
:103B5000022F7A3328F079E37D932A95E9F710C094
:103B60007D932A9589F606949795679537951795CD
:103B70001794E118F10A430B560BC90BD00998F0C2
:103B800023957E9173957A3308F070E37C9320132C
:103B9000B8F77E9170617D9330F0839571E37D93EA
:103BA00070E32A95E1F71124EF90FF900F911F9198
:103BB000CF91DF91992787FD90950895FC0105909D
:103BC000615070400110D8F7809590958E0F9F1F1F
:103BD0000895FB01DC0101900D920020E1F70895AA
:103BE000FC016150704001900110D8F780959095CC
:103BF0008E0F9F1F08950F931F93CF93DF938C0118
:103C0000EB018B8181FF1BC082FF0DC02E813F81A4
:103C10008C819D812817390764F4E881F98101932B
:103C2000F983E88306C0E885F985802F0995009718
:103C300031F48E819F8101969F838E8302C00FEFA6
:103C40001FEFC801DF91CF911F910F910895AEE052
:103C5000B0E0EDE2FEE10C94C91C0D891E8986E0FE
:103C60008C831A8309838FEF9FE79E838D839E0148
:103C7000275E3F4FCE0101966F89788DA9010E9482
:103C8000FB16EF81F885E00FF11F10822E96E4E01D
:103C90000C94E51CFA01AA27283051F1203181F15A
:103CA000E8946F936E7F6E5F7F4F8F4F9F4FAF4F44
:103CB000B1E03ED0B4E03CD0670F781F891F9A1F57
:103CC000A11D680F791F8A1F911DA11D6A0F711D0B
:103CD000811D911DA11D20D009F468943F912AE017
:103CE000269F11243019305D3193DEF6CF010895FF
:103CF000462F4770405D4193B3E00FD0C9F7F6CF30
:103D0000462F4F70405D4A3318F0495D31FD4052F7
:103D1000419302D0A9F7EACFB4E0A695979587958D
:103D200077956795BA95C9F700976105710508956C
:103D30009B01AC010A2E0694579547953795279518
:103D4000BA95C9F7620F731F841F951FA01D0895B0
:043D5000F894FFCF15
:103D5400253032642F253032642F253032642C0014
:103D640025303264002530342E316600432C005255
:103D7400483D002025332E3066002500436F6E66D3
:103D840065726D693F2053692F4E6F003A00200021
:103D94002D00253032642F253032642F25303264D3
:103DA4000045646974696E6720646174653A00252E
:103DB4003032643A253032643A2530326400456446
:103DC4006974696E672074696D653A00703A2530CC
:103DD400326452482C2020633A2530326420524801
:103DE40000456469742048756D2D4F6E2054483A1F
:103DF4000000456469742048756D2D416C20544859
:103E04003A00010000000000000000000000000073
:103E140000000000312E536F676C696120312D441E
:103E240045554D00322E536F676C696120322D4128
:103E34004C4C2000332E446174612020202020202B
:103E440020202000342E4F726120202020202020AA
:103E540020202000352E68656C6C6F2020202020E7
:103E640020200000362E776F726C642020202020E2
:103E740020202000372E6369616F2020202020201D
:103E8400202020002020202020202020202020204E
:103E9400202000001F1D1F1E1F1E1F1F1E1F1E1F70
:00000001FF
