:100000000C94B5000C94D2000C94D2000C94D20045
:100010000C94D2000C94D2000C94D2000C94D20018
:100020000C94A5040C94D2000C94D2000C94D20031
:100030000C94D2000C94D2000C94D2000C942109A0
:100040000C94D2000C94D2000C94D2000C94D200E8
:100050000C94D2000C94F9050C94D2000C94D200AC
:100060000C94D2000C94D2006E616E00696E660032
:1000700000407A10F35A00A0724E18090010A5D45F
:10008000E80000E87648170000E40B54020000CABC
:100090009A3B000000E1F505000080969800000002
:1000A00040420F000000A086010000001027000061
:1000B0000000E803000000006400000000000A00E7
:1000C000000000000100000000002C76D888DC67EA
:1000D0004F0823DFC1DFAE59E1B1B796E5E3E45342
:1000E000C63AE651997696E8E6C28426EB898C9B5F
:1000F00062ED407C6FFCEFBC9C9F40F2BAA56FA5FF
:10010000F490055A2AF75C936B6CF9676DC11BFC80
:10011000E0E40D47FEF520E6B500D0ED902E03009B
:10012000943577050080841E080000204E0A0000E8
:1001300000C80C333333330F986E12831141EF8DA7
:100140002114893BE65516CFFEE6DB18D1844B38E7
:100150001BF77C1D901DA4BBE424203284725E2218
:100160008100C9F124ECA1E53D2711241FBECFEF8A
:10017000D8E0DEBFCDBF12E0A0E0B1E0ECE0F9E3F3
:1001800002C005900D92A238B107D9F713E0A2E89A
:10019000B2E001C01D92AD31B107E1F70E94DD0A66
:1001A0000C94841C0C94000084B1807F84B92C9A38
:1001B0002D9882E08A95F1F700C05F9A92E09A95B7
:1001C000F1F700C083B18295807F92E09A95F1F7B4
:1001D00000C05F9895E09A95F1F700005F9A92E071
:1001E0009A95F1F700C093B192E09A95F1F700C0AB
:1001F0005F9895E09A95F1F7000087FDDECF2C9887
:1002000084B18F6084B90895282F22952F708F7044
:10021000662311F42D9801C02D9A92E09A95F1F77A
:1002200000C05F9A95B1907F922B95B995E09A9511
:10023000F1F700005F9895E09A95F1F700005F9A5A
:1002400095B1907F982B95B985E08A95F1F70000DC
:100250005F9895E09A95F1F700000E94D400089508
:10026000DF93CF930F92CDB7DEB72FEF36E741E0A4
:10027000215030404040E1F700C0000094B19F6041
:1002800094B9579A259A249A95B1907F95B95F9819
:100290002C982D9800C000C000005F9A299A35E084
:1002A0003A95F1F700005F9845E04A95F1F70000B4
:1002B00089830E94D40089818C6060E00E940401DF
:1002C00088E260E00E9404010F90CF91DF910895D1
:1002D000EF92FF92CF93DF93E82EE7017E01F92E94
:1002E000E70103C061E00E94040189918823D1F7EE
:1002F000DF91CF91FF90EF900895EF92FF920F93CF
:100300001F93DF93CF9300D000D00F92CDB7DEB70D
:100310009B01FE01319645E0DF011D924A95E9F708
:10032000FE0136960AE010E005C0B8010E948B1A63
:100330008293CB010097C9F7BFEF2F3F3B0751F4E2
:10034000FE01319680E090E001C0019621912223C8
:10035000E1F304C085E090E0821B930B8E010F5FF8
:100360001F4F080F191F7C010AC0F80181918F01EE
:10037000805D61E00E9404010894E11CF11CF5E03D
:10038000EF16F10494F30F900F900F900F900F90D1
:10039000CF91DF911F910F91FF90EF9008958832D8
:1003A00030F461118064806860E00E940401089567
:1003B000CF93DF93EA010E94CF01CE010E94680132
:1003C000DF91CF9108951092B9008CE08093B8002E
:1003D0009091B80081E09B3008F480E0089584EAB1
:1003E0008093BC008091BC0087FFFCCF8091B90056
:1003F000887F883041F09091B900987F81E09031FA
:1004000019F480E0089580E0089594EA9093BC0088
:100410009091BC0097FFFCCF9091B900987F9830E5
:1004200011F0903199F48093BB0084E88093BC0074
:100430008091BC0087FFFCCF9091B900987F9831E4
:1004400039F081E0983429F480E0089582E008953D
:1004500080E0089584EA8093BC008091BC0087FF0F
:10046000FCCF9091B900987F81E0903109F480E051
:1004700008958093BB0084E88093BC008091BC0009
:1004800080648093BC008091BC0087FFFCCF80918A
:10049000B900887F883141F09091B900987F81E060
:1004A000903419F480E0089580E0089580FF02C040
:1004B00048E401C040E28093BB0084E88093BC0024
:1004C0008091BC0087FFFCCF2091B90030E0287FED
:1004D000307050E081E02417350709F480E008957A
:1004E0008093BB0084EC8093BC008091BC0087FFAC
:1004F000FCCF8091B900887F883241F09091B9009B
:10050000987F81E0983219F480E0089580E00895A2
:100510008093BB0084E88093BC008091BC0087FF7F
:10052000FCCF9091B900987F81E0903309F480E08E
:10053000089584EC8093BC008091BC0087FFFCCFC1
:100540008091B900887F803519F48091BB000895AF
:1005500087ED089584E88093BC008091BC0087FFFC
:10056000FCCF8091B900887F883519F48091BB0059
:10057000089587ED089584E98093BC008091BC00C4
:1005800084FDFCCF08951F93CF93DF9380EA0E94F0
:100590000502182F80E00E947002182B80E00E9454
:1005A0007002812B813041F0C0E0D0E00AC08FEFB3
:1005B0000E947002813021F40E94BB0281E006C0DB
:1005C0002196D7FFF4CF0E94BB0280E0DF91CF914C
:1005D0001F910895CF92DF92EF92FF920F931F9396
:1005E000DF93CF9300D00F92CDB7DEB76A01122F01
:1005F0003B836A8379830E94EF01E82E8FED9EE2B0
:100600000197F1F700C0000080EA0E943902E82A51
:100610007981872F0E947002E82A6A81862F0E94C2
:100620007002E82A0E942A02E82A81EA0E9439021E
:10063000E82A3B81EE20C1F00E94BB0220C00023CB
:1006400019F00E94990202C00E94AA02F701808359
:100650000894E11CF11CF7018081873D39F40E9468
:10066000BB0287EDE82E0BC0E12EF32E8E2D811BF1
:1006700090E08C159D0518F30E94BB02EC2C8E2D8A
:100680000F900F900F90CF91DF911F910F91FF90DE
:10069000EF90DF90CF9008950F93BC017695762F61
:1006A00066277795679580E090E040E850E020E08D
:1006B00030E000E00E94EA0280E090E00F910895AF
:1006C0001F9380EA0E940502882321F00E94BB024A
:1006D00086ED12C080E00E947002182F80E00E9418
:1006E0007002812B21F00E94BB0281E005C080E0F6
:1006F0008F5F8038E9F780E01F910895DF92EF92D5
:10070000FF920F931F93DF93CF930F92CDB7DEB776
:10071000162F042FE22EF82E882311F480EA01C050
:1007200088EA79830E9405027981882351F4872F12
:100730000E947002D82E812F0E9470028D29813074
:1007400021F40E94BB0286ED1CC0EE2021F0802F18
:100750000E94700203C0802F0E948802813021F421
:100760000E94BB0281E00DC00E94BB028FE39CE9A6
:100770000197F1F700C00000FF2011F08DE701C0E4
:1007800080E00F90CF91DF911F910F91FF90EF903C
:10079000DF9008958F929F92BF92CF92DF92EF9257
:1007A000FF920F931F93CF93DF936B017C01142F64
:1007B000B22E842EE4014E01952EE4010BC0499126
:1007C000C701B601202F0E947E030894C11CD11CD2
:1007D000E11CF11C4E01811A8B1488F380E0DF913B
:1007E000CF911F910F91FF90EF90DF90CF90BF902E
:1007F0009F908F900895AF92BF92DF92EF92FF92F9
:100800000F931F93CF93DF937B018C015A01E90172
:10081000DD240FC0EC0FFD1FC801B701408121E0AE
:100820000E947E03882321F00E94BB0281E007C062
:10083000D394ED2DF0E0EA15FB0560F380E0DF9145
:10084000CF911F910F91FF90EF90DF90BF90AF90ED
:100850000895EF92FF920F931F93DF93CF930F9220
:10086000CDB7DEB7162FE42E882319F430EAF32E25
:1008700002C028EAF22E8F2D79830E940502798129
:100880008823F9F4872F0E947002082F812F0E947D
:100890007002082B0E942A02082B8F2D8F5F0E9466
:1008A0003902802B813021F40E94BB0288ED11C0F7
:1008B000EE2019F00E94990202C00E94AA02873D10
:1008C00021F40E94BB0286ED04C089830E94BB0212
:1008D00089810F90CF91DF911F910F91FF90EF9041
:1008E0000895AF92BF92CF92DF92EF92FF920F9353
:1008F0001F93DF93CF930F92CDB7DEB76B017C01CF
:10090000142F642F752F5B010FC0C701B601402F54
:1009100029830E942904F50181935F010894C11C79
:10092000D11CE11CF11C29818A2D811B821768F3DF
:10093000822F0F90CF91DF911F910F91FF90EF9039
:10094000DF90CF90BF90AF9008951F920F920FB697
:100950000F9211242F933F938F939F938091CD02F9
:10096000833020F12091CD02809192028823F1F40E
:100970008091A9029091AA0233E08032930750F44B
:100980008091A9029091AA0201969093AA02809365
:10099000A9020CC01092AA021092A9025E9880913E
:1009A000B100887F8093B1002093CD029F918F91F9
:1009B0003F912F910F900FBE0F901F901895EAE76F
:1009C000F0E087E0808380818860808381E080938D
:1009D0007C008093F5020895882319F080E00E943E
:1009E000300181E060E00E9404018BE060E040E0C3
:1009F00051E00E94D80180E061E046E051E00E94B1
:100A0000D8018FED61E00E94040185E061E04BE0D8
:100A100051E00E94D80188E061E04EE051E00E9480
:100A2000D801089585B5856085BD84B5826084BD93
:100A3000EEE6F0E08081846080838CE987BD0895D4
:100A4000E0EBF0E0808182608083E0E7F0E080818D
:100A5000846080838CE98093B300089581E0809363
:100A6000BD028093CF02569A8CE18BB90E94E301BC
:100A70000E94DF0481E00E94EC040E9412050E94A3
:100A8000200578940895609178007091790080E055
:100A900090E00E94661920E030E040EA50E40E94B5
:100AA0001C1A20E030E040E85AE30E941C1A9B0127
:100AB000AC01209304033093050340930603509345
:100AC00007036091040370910503809106039091E0
:100AD00007032AE037ED43E25CE30E94CD18089556
:100AE000AF92BF92CF92DF92EF92FF920F931F933C
:100AF0007B018C01609178007091790080E090E03A
:100B00000E94661920E030E040EA50E40E941C1A7E
:100B100020E030E040E85AE30E941C1A9B01AC013F
:100B20002093DC023093DD024093DE025093DF021B
:100B30006091DC027091DD028091DE029091DF0213
:100B400020E030E040EA50E40E94CD182AE037ED82
:100B500043E25EE30E9464182FE539E24BEC5BE36D
:100B60000E94CD189B01AC012093C0023093C102BA
:100B70004093C2025093C302A090C002B090C10241
:100B8000C090C202D090C302C801B70129EC3EE870
:100B90004DE05BE30E941C1A9B01AC0162E27DEF19
:100BA00086E89FE30E9464189B01AC01C601B50171
:100BB0000E94CD189B01AC012093A3023093A402A4
:100BC0004093A5025093A6028091A3029091A402A3
:100BD000A091A502B091A602682F792F8A2F9B2F92
:100BE0001F910F91FF90EF90DF90CF90BF90AF904B
:100BF00008951F920F920FB60F921124BF92CF92B9
:100C0000DF92EF92FF920F931F932F933F934F9397
:100C10005F936F937F938F939F93AF93BF93EF9364
:100C2000FF938091CD02823058F480917A008061E8
:100C300080937A008091F6028F5F8093F6027EC0E7
:100C400084B780930303F894B090CD028091E201C1
:100C5000882341F01092E20180917A0080648093B1
:100C60007A006CC01091F502112381F1113009F066
:100C70005FC0C0909302D0909402E0909502F090F3
:100C800096020E94430560939302709394028093AE
:100C90009502909396022091930230919402409194
:100CA000950250919602C701B6010E94C918882387
:100CB00011F01093BE0280917A00806480937A00D4
:100CC00010927C001092F50281E030C0E090970213
:100CD000F09098020091990210919A02609193020B
:100CE0007091940280919502909196020E947005F5
:100CF00060939702709398028093990290939A025E
:100D000020919702309198024091990250919A0255
:100D1000C801B7010E94C918882319F081E08093A7
:100D2000BC0281E080937C008093F5028093E20115
:100D300078948091030384BFB092CD02FF91EF912C
:100D4000BF91AF919F918F917F916F915F914F91E3
:100D50003F912F911F910F91FF90EF90DF90CF90D7
:100D6000BF900F900FBE0F901F9018950F931F9379
:100D7000CF93DF938091BD028823A1F11092BD0231
:100D80004091CA023091CB022091CC028DB79EB720
:100D90000A970FB6F8949EBF0FBE8DBFEDB7FEB792
:100DA0003196C3EED1E0ADB7BEB71296DC93CE93C9
:100DB000119787E191E09383828344831582368380
:100DC0001782208711860E94031CEDB7FEB73A9662
:100DD0000FB6F894FEBF0FBEEDBF80E060E0AE013D
:100DE0000E94D8018091AD02882309F448C0109276
:100DF000AD028091C90200D000D000D0EDB7FEB79F
:100E00003196C3EED1E0ADB7BEB71296DC93CE9368
:100E1000119707E211E013830283848315820E94F5
:100E2000031CEDB7FEB736960FB6F894FEBF0FBEA3
:100E3000EDBF8BE060E0AE010E94D8018091C80256
:100E400000D000D000D0EDB7FEB73196ADB7BEB739
:100E50001296DC93CE9311971383028384831582B9
:100E60000E94031CEDB7FEB736960FB6F894FEBF8E
:100E70000FBEEDBF8EE060E0AE010E94D801809110
:100E8000BE02882309F440C01092BE0280919302F2
:100E900090919402A0919502B09196022DB73EB721
:100EA000285030400FB6F8943EBF0FBE2DBF4DB74F
:100EB0005EB74F5F5F4FC3EED1E0EDB7FEB7D283B1
:100EC000C1832CE231E0FA0133832283848395834A
:100ED000A683B7830E94031C2DB73EB7285F3F4F00
:100EE0000FB6F8943EBF0FBE2DBF80E061E0AE01AB
:100EF0000E94D8018FED61E00E94040185E061E06D
:100F00004BE051E00E94D8018091BC02882309F493
:100F100069C01092BC0288E061E043E351E00E94A6
:100F2000D8016091970270919802809199029091F6
:100F30009A0226E636EE47EC52E40E94C91823EEE8
:100F400031E087FF1BC08091970290919802A09199
:100F50009902B0919A024DB75EB7485050400FB613
:100F6000F8945EBF0FBE4DBFEDB7FEB73196CDB75B
:100F7000DEB73A8329832CE231E01AC080919702D0
:100F800090919802A0919902B0919A024DB75EB7E4
:100F9000485050400FB6F8945EBF0FBE4DBFEDB73E
:100FA000FEB73196CDB7DEB73A83298327E331E028
:100FB0003383228384839583A683B7830E94031C93
:100FC000EDB7FEB738960FB6F894FEBF0FBEEDBF73
:100FD0008BE061E043EE51E00E94D8018EE391E0A6
:100FE0000E946801DF91CF911F910F910895809128
:100FF0001803863009F4B0C0873009F4BAC08823DA
:1010000009F005C18091CF028823B9F180E060E04A
:1010100040E451E00E94D8011092830210928402B1
:10102000109285021092860217C080E160E00E9453
:1010300004018091830290918402A0918502B09175
:1010400086020196A11DB11D8093830290938402B4
:10105000A0938502B09386028091830290918402CE
:10106000A0918502B091860285309105A105B10558
:10107000E0F21092CF0210928F028091DB0288235F
:1010800009F4C5C080918F02882391F582E060E069
:101090000E94040110928302109284021092850231
:1010A0001092860217C084E160E00E9404018091E2
:1010B000830290918402A0918502B09186020196EC
:1010C000A11DB11D8093830290938402A093850299
:1010D000B09386028091830290918402A091850250
:1010E000B09186028A309105A105B105E0F231C0C8
:1010F00082E060E00E940401109283021092840258
:10110000109285021092860217C084E160E00E946E
:1011100004018091830290918402A0918502B09194
:1011200086020196A11DB11D8093830290938402D3
:10113000A0938502B09386028091830290918402ED
:10114000A0918502B09186028D309105A105B1056F
:10115000E0F21092DB02089590918F0281E09111EC
:1011600080E080938F0281E08093DB02109218036D
:10117000089580918F02882331F081E0809382026C
:1011800010928F023FC0809182028530B9F0863084
:1011900018F4833049F505C08730E9F0893021F52E
:1011A0001FC08091F2028093CA028091F302809363
:1011B000CB028091F4028093CC0216C08091EF02A2
:1011C0008093C7028091F0028093C8028091F1025F
:1011D0008093C90209C0809109038093EC0204C086
:1011E000809190028093080381E08093820260E006
:1011F0000E94040182E060E00E9404018CE060E053
:101200000E9404011092180381E08093CF02089598
:10121000282F837079F4822F64E60E947F1A992325
:1012200061F4822F60E971E00E948B1A21E030E0C6
:10123000009729F020E030E002C021E030E0C90151
:1012400008951F920F920FB60F9211241F932F93A0
:101250003F934F935F936F937F938F939F93AF933E
:10126000BF93EF93FF938091CD02882309F44BC184
:101270001091CD0221E02093CD0289B18093FD022F
:101280008091FD0284708093F8028091FD0280714C
:101290008093C4028091FD0288708093170380912F
:1012A00017038823B9F480911603882399F4809159
:1012B0009F029091A00201969093A00280939F02BA
:1012C00080919F029091A00285369105B8F12093FC
:1012D000160334C080911703882311F0109216036F
:1012E00080919F029091A0028730910528F410927E
:1012F000A00210929F0222C080919F029091A002B2
:101300008830910568F080919F029091A002843608
:10131000910530F41092A00210929F0286E00CC05A
:1013200080919F029091A0028536910538F010922D
:10133000A00210929F0287E0809318038091F80228
:10134000882389F480919B0290919C02019690934E
:101350009C0280939B0280919B0290919C0284321C
:10136000910578F007C080919B0290919C02873094
:10137000910518F082E08093180310929C0210925D
:101380009B028091C402882389F480919D029091F0
:101390009E02019690939E0280939D0280919D02F1
:1013A00090919E028432910578F007C080919D0251
:1013B00090919E028730910518F084E08093180385
:1013C00010929E0210929D028091F802882371F47F
:1013D0008091C402882351F48091A1029091A202CD
:1013E00001969093A2028093A1020EC08091A10267
:1013F0009091A2028730910518F088E0809318033D
:101400001092A2021092A1028091C5029091C60290
:101410008336910550F48091C5029091C6020196E1
:101420009093C6028093C5026CC01092C6021092BF
:10143000C5028091C7028B3370F48091C7028F5F21
:101440008093C70281E08093BF0280917A00806C14
:1014500080937A0056C01092C7028091C8028B33E5
:1014600030F48091C8028F5F8093C80247C0109209
:10147000C8028091C902873130F48091C9028F5F20
:101480008093C9023BC01092C9029091CA02E091B8
:10149000CB02F0E0EF58FD4F80819817C0F48091A7
:1014A000CA028F5F8093CA028091CA028D3119F5FA
:1014B0008091CB028230F9F48091CC020E9408091D
:1014C0000097C9F481E08093CA0283E00AC081E0FA
:1014D0008093CA029091CB029C3030F48091CB0271
:1014E0008F5F8093CB0207C08093CB028091CC02A8
:1014F0008F5F8093CC0281E08093BD0281E0809376
:10150000AD021093CD02FF91EF91BF91AF919F91EA
:101510008F917F916F915F914F913F912F911F918B
:101520000F900FBE0F901F9018950F931F93CF939E
:10153000DF93EC018B019D81EE81F0E03197E60FA6
:10154000F71F80819817D0F08E81823069F48F81E7
:101550000E940809009741F4EE81F0E03197E00F16
:10156000F11F8081815006C0EE81F0E03197E00FDD
:10157000F11F80818D8321E030E002C020E030E067
:10158000C901DF91CF911F910F9108958091B7020A
:10159000882349F08DE060E040E551E00E94D801E9
:1015A0001092B70208958DE060E042E551E00E949C
:1015B000D80181E08093B70208952F923F924F9215
:1015C0005F926F927F928F929F92AF92BF92CF92D3
:1015D000DF92EF92FF920F931F93DF93CF930F92BF
:1015E000CDB7DEB789E08093CD021092C60210928B
:1015F000C5021092C7021092C8021092C90287E079
:101600008093CA0288E08093CB028BE08093CC0267
:101610000E942E0567EF70E080E090E04EE752E018
:1016200024E001E00E94CA0381E060E00E9404011E
:1016300080E060E044E551E00E94D8012FEF35EAF8
:101640004EE0215030404040E1F700C0000067EF1D
:1016500070E080E090E048EE52E024E000E00E947C
:1016600071044DB75EB7485050400FB6F8945EBF56
:101670000FBE4DBFEDB7FEB7319613EEC12E11E090
:10168000D12EADB7BEB71296DC92CE9211978CE5F3
:1016900091E0938382838091E8029091E902A09186
:1016A000EA02B091EB0284839583A683B7830E94FC
:1016B000031CEDB7FEB738960FB6F894FEBF0FBE09
:1016C000EDBF80E061E0A6010E94D8012FEF33ED6D
:1016D00040E3215030404040E1F700C0000081E08D
:1016E00060E00E94040180E060E049E651E00E9471
:1016F000D8018FEF97E8A3E181509040A040E1F737
:1017000000C00000109283021092840210928502A1
:1017100010928602B7EFEB2EF12C012D112DA3E7CD
:101720006A2EA1E07A2E7CC04091830250918402FF
:1017300060918502709186024F5FC801B70121E078
:101740000E947E032FEF39EF40E0215030404040AF
:10175000E1F700C000008090830290908402A09086
:101760008502B0908602C801B70140E00E942904BA
:10177000F401E65FFC4F80838091830290918402A4
:10178000A0918502B0918602865F9C4FDC018C910E
:10179000EDB7FEB73A970FB6F894FEBF0FBEEDBF98
:1017A0003196ADB7BEB71196CC9211971296DC92D6
:1017B00073826282E482F5820683178380871186B2
:1017C0000E94031C0894E11CF11C011D111DEDB7C2
:1017D000FEB73A960FB6F894FEBF0FBEEDBF80E09D
:1017E00060E0A6010E94D8012FEF37E843E12150C5
:1017F00030404040E1F700C00000809183029091AA
:101800008402A0918502B09186020196A11DB11DAE
:101810008093830290938402A0938502B093860202
:101820008091830290918402A0918502B0918602FA
:1018300085309105A105B10508F476CFFCE9CF2EDE
:10184000F1E0DF2EEBE3AE2E77E1572E65E0462E7A
:1018500058E0352E4CE3942E38E1232E07E211E0B8
:1018600023E6822E99EB692E91E0792E87E0B82E3F
:10187000BFE7EB2EB1E0FB2E20918202243009F469
:10188000C7C3253058F42130E9F12130D8F0223097
:1018900009F4E2C0233081F70C94B114273011F41D
:1018A0000C94B114283038F4253011F40C94B11490
:1018B000263011F7DFC5283009F414C72930E1F6C6
:1018C0000C94B11480911803873030F4823008F002
:1018D000BCC0882321F0D0CF873071F60BC0809137
:1018E000BF02882321F00E94C60A1092BF020E9404
:1018F000B6068AC381E0809382025E9A8093920248
:101900000C94AD1480911803843009F454C08530D0
:1019100030F4882359F0823009F0AECF3DC08630D4
:1019200009F45FC0873009F0A7CF72C08091CE0262
:10193000882329F48091CF02882309F49DCF109247
:10194000CF021092CE0280E060E04DE751E00E94AD
:10195000D8014091F70250E0A4E0440F551FAA952A
:10196000E1F74E505E4F81E060E00E94D80180E0D8
:1019700061E042E551E00E94D8014091F70250E059
:10198000F4E0440F551FFA95E1F74E5F5D4F81E09B
:1019900061E00E94D80170CF8091F7028F5F809341
:1019A000F7028091F7026B2D0E947F1A9093F70245
:1019B0002093CE02D2C78091F702882321F0809134
:1019C000F702815001C086E08093F7028091F70210
:1019D0006B2D0E947F1A9093F70281E08093CE02D4
:1019E000BCC79091F702913081F0913008F408C3A0
:1019F000923021F0933009F007C303C09093820224
:101A000001C334E030938202FDC230928202FAC2F6
:101A10001092820281E060E029830E94040182E04A
:101A200060E00E9404018CE060E00E9404011092DA
:101A3000F70229812093BD022093AD022093BE02BC
:101A40002093BC02109292025E985E9A8091B1003F
:101A500087608093B10081C780911803843009F4B6
:101A60003FC1853030F4882359F0823009F004CF2B
:101A700085C0863009F4E7C1873009F0FDCEBFC2CA
:101A80008091CF02882309F4F7CE1092CF0281E033
:101A900060E00E940401ADEEB2E0E5ECF2E088E027
:101AA00001900D928150E1F72091F2029091F302A2
:101AB0008091F4024DB75EB74A5050400FB6F8948B
:101AC0005EBF0FBE4DBFEDB7FEB7319643EE51E09E
:101AD000ADB7BEB712965C934E931197F382E28234
:101AE0002483158296831782808711860E94031CA7
:101AF0008DB79EB70A960FB6F8949EBF0FBE8DBFE6
:101B000080E060E04EE851E00E94D80183E061E0AF
:101B100043EE51E00E94D8018EE060E00E94040193
:101B20001092830210928402109285021092860213
:101B300017C080E160E00E940401809183029091CF
:101B40008402A0918502B09186020196A11DB11D6B
:101B50008093830290938402A0938502B0938602BF
:101B60008091830290918402A0918502B0918602B7
:101B700087309105A105B105E0F27ECE80918F02FC
:101B8000813049F1813018F08230E9F531C080911F
:101B9000F2028F5F8093F2029091F202E091F302E1
:101BA000F0E0EF58FD4F8081891718F481E08093B1
:101BB000F2028091F302823031F58091F4020E94AA
:101BC0000809009701F58091F2028D31E1F481E07E
:101BD0008093F20218C08091F3028F5F8093F3022A
:101BE0008091F3028D3048F081E08093F30205C0CC
:101BF0008091F4028F5F8093F4028DEE92E062E7B1
:101C000072E00E94950A2091F2029091F302809175
:101C1000F402ADB7BEB71A970FB6F894BEBF0FBEA9
:101C2000ADBFEDB7FEB7319643EE51E012965C932F
:101C30004E931197F382E282248315829683178252
:101C4000808711860E94031C8DB79EB70A960FB637
:101C5000F8949EBF0FBE8DBF83E061E043EE51E07C
:101C60000E94D80110928302109284021092850281
:101C70001092860217C080E160E00E94040180910A
:101C8000830290918402A0918502B0918602019610
:101C9000A11DB11D8093830290938402A0938502BD
:101CA000B093860220918302309184024091850294
:101CB0005091860260918F0270E0CB01880F991FCE
:101CC000860F971F909581959F4F0796AA2797FD9E
:101CD000A095BA2F281739074A075B0760F23DC65F
:101CE00080918F02813021F1813018F08230F1F53E
:101CF0002CC08091F20281508093F2028091F20216
:101D00008823A1F5E091F302F0E0EF58FD4F8081C8
:101D10008093F2028091F302823041F58091F402C7
:101D20000E940809009711F58CE18093F2021EC011
:101D30008091F30281508093F3028091F302882313
:101D400079F48CE08093F3020BC08091F40281500F
:101D50008093F4028091F402882311F48092F402BB
:101D60008DEE92E062E772E00E94950A2091F20205
:101D70009091F3028091F402ADB7BEB71A970FB6F7
:101D8000F894BEBF0FBEADBFEDB7FEB7319643EEC0
:101D900051E012965C934E931197F382E282248372
:101DA000158296831782808711860E94031C8DB747
:101DB0009EB70A960FB6F8949EBF0FBE8DBF83E004
:101DC00061E043EE51E00E94D8011092830210922C
:101DD0008402109285021092860217C080E160E0B2
:101DE0000E9404018091830290918402A091850257
:101DF000B09186020196A11DB11D8093830290933C
:101E00008402A0938502B0938602209183023091D0
:101E10008402409185025091860260918F0270E0A9
:101E2000CB01880F991F860F971F909581959F4F23
:101E30000796AA2797FDA095BA2F281739074A07B2
:101E40005B0760F28AC580918F02823098F510920C
:101E5000830210928402109285021092860217C0AB
:101E600084E160E00E9404018091830290918402E9
:101E7000A0918502B09186020196A11DB11D8093AB
:101E8000830290938402A0938502B093860280918E
:101E9000830290918402A0918502B09186028330E2
:101EA0009105A105B105E0F280918F028F5F8093CB
:101EB0008F022FC010928F02109283021092840220
:101EC000109285021092860217C080E160E00E94A5
:101ED00004018091830290918402A0918502B091C7
:101EE00086020196A11DB11D809383029093840206
:101EF000A0938502B0938602809183029091840220
:101F0000A0918502B091860286309105A105B105A8
:101F1000E0F28DEE92E062E772E00E94950A00978F
:101F200009F41BC52091F2029091F3028091F40212
:101F3000ADB7BEB71A970FB6F894BEBF0FBEADBF10
:101F4000EDB7FEB7319643EE51E012965C934E9397
:101F50001197F382E2822483158296831782808709
:101F600011860E94031C8DB79EB70A960FB6F8948F
:101F70009EBF0FBE8DBF83E061E043EE51E00E9443
:101F8000D80110928302109284021092850210925E
:101F9000860217C080E160E00E9404018091830204
:101FA00090918402A0918502B09186020196A11DB4
:101FB000B11D8093830290938402A0938502B09315
:101FC00086022091830230918402409185025091D3
:101FD000860260918F0270E0CB01880F991F860FF7
:101FE000971F909581959F4F0796AA2797FDA095DB
:101FF000BA2F281739074A075B0760F2AEC483E09F
:10200000809382021092180381E08093CF0234CC37
:1020100080911803843009F428C1853030F4882376
:1020200059F0823009F028CC82C0863009F4B8C15A
:10203000873009F021CC1BC28091CF02882309F49C
:102040001BCC1092CF0281E060E00E940401ADEE53
:10205000B2E0E5ECF2E088E001900D928150E1F70A
:102060002091F1029091F0028091EF02ADB7BEB7DE
:102070001A970FB6F894BEBF0FBEADBFEDB7FEB74F
:10208000319643EE51E012965C934E931197D382B2
:10209000C2822483158296831782808711860E94CC
:1020A000031C8DB79EB70A960FB6F8949EBF0FBE5D
:1020B0008DBF80E060E04BEA51E00E94D80183E0F0
:1020C00061E043EE51E00E94D8018EE060E00E94A2
:1020D00004011092830210928402109285021092E1
:1020E000860217C080E160E00E94040180918302B3
:1020F00090918402A0918502B09186020196A11D63
:10210000B11D8093830290938402A0938502B093C3
:1021100086028091830290918402A0918502B09101
:10212000860287309105A105B105E0F2A5CB10929A
:10213000180380918F02813091F0813018F0823045
:1021400039F51AC08091F1028F5F8093F10280917E
:10215000F102622D0E947F1A9093F10219C08091C2
:10216000F0028F5F8093F0028091F002692D0E944F
:102170007F1A9093F0020CC08091EF028F5F8093E2
:10218000EF028091EF02692D0E947F1A9093EF0277
:102190002091F1029091F0028091EF02ADB7BEB7AD
:1021A0001A970FB6F894BEBF0FBEADBFEDB7FEB71E
:1021B000319643EE51E012965C934E931197D38281
:1021C000C2822483158296831782808711860E949B
:1021D000031C8DB79EB70A960FB6F8949EBF0FBE2C
:1021E0008DBF83E061E043EE51E00E94D801109280
:1021F000830210928402109285021092860217C008
:1022000080E160E00E940401809183029091840249
:10221000A0918502B09186020196A11DB11D809307
:10222000830290938402A0938502B093860220914A
:102230008302309184024091850250918602609120
:102240008F0270E0CB01880F991F860F971F909522
:1022500081959F4F0796AA2797FDA095BA2F28171B
:1022600039074A075B0760F207CB10921803809189
:102270008F02813089F0813018F0823021F518C04A
:102280008091F10281508093F1028091F1028931B5
:10229000D0F05092F10217C08091F00281508093EB
:1022A000F0028091F0028D3370F0A092F0020BC02A
:1022B0008091EF0281508093EF028091EF028D3385
:1022C00010F0A092EF022091F1029091F002809123
:1022D000EF02ADB7BEB71A970FB6F894BEBF0FBEE8
:1022E000ADBFEDB7FEB7319643EE51E012965C9369
:1022F0004E931197D382C2822483158296831782CC
:10230000808711860E94031C8DB79EB70A960FB670
:10231000F8949EBF0FBE8DBF83E061E043EE51E0B5
:102320000E94D801109283021092840210928502BA
:102330001092860217C080E160E00E940401809143
:10234000830290918402A0918502B0918602019649
:10235000A11DB11D8093830290938402A0938502F6
:10236000B0938602209183023091840240918502CD
:102370005091860260918F0270E0CB01880F991F07
:10238000860F971F909581959F4F0796AA2797FDD7
:10239000A095BA2F281739074A075B0760F26CCA65
:1023A00080918F02823098F51092830210928402FD
:1023B000109285021092860217C084E160E00E94AC
:1023C00004018091830290918402A0918502B091D2
:1023D00086020196A11DB11D809383029093840211
:1023E000A0938502B093860280918302909184022B
:1023F000A0918502B091860283309105A105B105B7
:10240000E0F280918F028F5F80938F02A6C21092BC
:102410008F02109283021092840210928502109211
:10242000860217C080E160E00E940401809183026F
:1024300090918402A0918502B09186020196A11D1F
:10244000B11D8093830290938402A0938502B09380
:1024500086028091830290918402A0918502B091BE
:10246000860286309105A105B105E0F276C2409260
:102470008202C8CD80911803823009F47AC083307B
:1024800018F4882341F0F8C9843009F4CDC08730AE
:1024900009F0F2C924C18091CF02882309F4ECC964
:1024A0001092CF0281E060E00E9404018091EC0272
:1024B0008093090300D000D000D0EDB7FEB731966D
:1024C00023EE31E0ADB7BEB712963C932E93119731
:1024D00073826282848315820E94031C4DB75EB7AB
:1024E0004A5F5F4F0FB6F8945EBF0FBE4DBF80E0EE
:1024F00060E042EC51E00E94D80186E061E043EEEA
:1025000051E00E94D8018EE391E00E9468018EE0C4
:1025100060E00E94040110928302109284021092E3
:1025200085021092860217C080E160E00E940401DB
:102530008091830290918402A0918502B0918602DD
:102540000196A11DB11D8093830290938402A093F4
:102550008502B09386028091830290918402A091BB
:102560008502B091860282309105A105B105E0F2A5
:1025700083C9809109038F5F80930903843610F02B
:102580001092090300D000D000D0EDB7FEB731960D
:1025900023EE31E0ADB7BEB712963C932E93119760
:1025A0001383028380910903848315820E94031C94
:1025B0004DB75EB74A5F5F4F0FB6F8945EBF0FBE70
:1025C0004DBF8AE061E043EE51E00E94D8011092D5
:1025D000830210928402109285021092860217C024
:1025E00080E160E00E940401809183029091840266
:1025F000A0918502B09186020196A11DB11D809324
:10260000830290938402A0938502B0938602809106
:10261000830290918402A0918502B0918602009776
:10262000A105B105E9F299C1809109038150809318
:102630000903853610F08092090300D000D000D045
:10264000EDB7FEB7319623EE31E0ADB7BEB71296C7
:102650003C932E9311971383028380910903848303
:1026600015820E94031C4DB75EB74A5F5F4F0FB6DD
:10267000F8945EBF0FBE4DBF8AE061E043EE51E0CB
:102680000E94D80110928302109284021092850257
:102690001092860217C080E160E00E9404018091E0
:1026A000830290918402A0918502B09186020196E6
:1026B000A11DB11D8093830290938402A093850293
:1026C000B09386028091830290918402A09185024A
:1026D000B09186020097A105B105E9F23EC1B09222
:1026E000820238C180911803823009F47AC08330A5
:1026F00018F4882341F0C0C8843009F4CDC0873075
:1027000009F0BAC824C18091CF02882309F4B4C863
:102710001092CF0281E060E00E94040180910803E2
:102720008093900200D000D000D0EDB7FEB7319674
:1027300023EE31E0ADB7BEB712963C932E931197BE
:1027400073826282848315820E94031C4DB75EB738
:102750004A5F5F4F0FB6F8945EBF0FBE4DBF80E07B
:1027600060E042ED51E00E94D80186E061E043EE76
:1027700051E00E94D8018EE391E00E9468018EE052
:1027800060E00E9404011092830210928402109271
:1027900085021092860217C080E160E00E94040169
:1027A0008091830290918402A0918502B09186026B
:1027B0000196A11DB11D8093830290938402A09382
:1027C0008502B09386028091830290918402A09149
:1027D0008502B091860282309105A105B105E0F233
:1027E0004BC8809190028F5F80939002843610F0E6
:1027F0001092900200D000D000D0EDB7FEB7319615
:1028000023EE31E0ADB7BEB712963C932E931197ED
:102810001383028380919002848315820E94031C9B
:102820004DB75EB74A5F5F4F0FB6F8945EBF0FBEFD
:102830004DBF8AE061E043EE51E00E94D801109262
:10284000830210928402109285021092860217C0B1
:1028500080E160E00E9404018091830290918402F3
:10286000A0918502B09186020196A11DB11D8093B1
:10287000830290938402A0938502B0938602809194
:10288000830290918402A0918502B0918602009704
:10289000A105B105E9F261C0809190028150809359
:1028A0009002853610F08092900200D000D000D0C7
:1028B000EDB7FEB7319623EE31E0ADB7BEB7129655
:1028C0003C932E931197138302838091900284830B
:1028D00015820E94031C4DB75EB74A5F5F4F0FB66B
:1028E000F8945EBF0FBE4DBF8AE061E043EE51E059
:1028F0000E94D801109283021092840210928502E5
:102900001092860217C080E160E00E94040180916D
:10291000830290918402A0918502B0918602019673
:10292000A11DB11D8093830290938402A093850220
:10293000B09386028091830290918402A0918502D7
:10294000B09186020097A105B105E9F206C059E0F1
:102950005093820281E08093CF02109218030C946E
:102960003C0C0E94F7070C943C0CEF92FF920F93E3
:102970001F93CF93DF937B018C010E943519EB01EC
:10298000BE01882777FD8095982F0E9468199B01CA
:10299000AC01C801B7010E94641820E030E040E0BB
:1029A0005FE30E94181A18160CF42196CE01DF91ED
:1029B000CF911F910F91FF90EF900895A3E1B0E0A8
:1029C000E4EEF4E10C949E1A6C017F876E87FC01A3
:1029D00017821682838181FD04C06FC34C855D859B
:1029E00004C01E010894211C311CF6019381EE8560
:1029F000FF8593FD859193FF8191FF87EE87882363
:102A000009F457C3853241F493FD859193FF819179
:102A1000FF87EE87853259F490E0B6014A8B5B8BD5
:102A20000E94D71B4A895B895D874C87D7CF10E00E
:102A3000FF2400E00032B0F48B3269F08C3228F4CD
:102A4000803251F0833271F40BC08D3239F0803313
:102A500049F401602CC00260046029C0086027C0EE
:102A6000006125C007FD2EC0282F20532A3098F47E
:102A700006FF08C0812F880F182F110F110F180F94
:102A8000120F15C08F2D880FF82EFF0CFF0CF80EBB
:102A9000F20E00620CC08E3221F406FD0AC30064FF
:102AA00006C08C3611F4006802C0883659F4EE85F1
:102AB000FF8593FD859193FF8191FF87EE878823A2
:102AC00009F0B8CF982F9554933018F40061805EC8
:102AD00006C0982F9556933008F09BC10F7E06FFD5
:102AE00016E06FE3E62EE022853619F4F0E4EF2AD3
:102AF00007C0863619F420E8E22A02C011111150ED
:102B0000E7FE06C01C3340F4912E939427E00BC0DF
:102B1000183030F4212F06C027E03CE3932E03C089
:102B200027E017E09924CA0104969D878C87FA0153
:102B30006081718182819381A101092D0E94E91A2E
:102B40005C016980262D30E0398B288B60FE03C044
:102B5000388933FF06C0E1FC06C0E2FE06C000E291
:102B600005C00DE203C00BE201C000E0888999892D
:102B70008C7090700097C1F1002311F084E001C0C7
:102B800083E08F1558F4F81AE3FC09C080E290E066
:102B9000B6010E94D71BFA94C9F701C0FF24002395
:102BA00029F0802F90E0B6010E94D71B888983FD11
:102BB00003C00CE610E00EC008E610E00BC0A11444
:102BC000B10409F0805290E0B6010E94D71B0F5F5C
:102BD0001F4F05C0AE2CBB2490E1A922BB24F801F5
:102BE0008491882361F762C2E7FE0EC09A0CF889CF
:102BF000F4FF04C08A81813309F49A94191454F5BE
:102C0000292D293050F52DC0E6FC2BC0812F90E0F6
:102C10008A159B054CF03CEFA3163FEFB30624F05A
:102C200080E8E82A01C01150112349F0E2E0F0E009
:102C3000EC0FFD1FE10FF11D80818033A1F3E7FE52
:102C400010C0912E9394812F90E0A816B90644F4F9
:102C50001A1907C09924939404C098E0992E01C0D2
:102C600010E0E7FE07C01A141B043CF495012F5F27
:102C70003F4F05C025E030E002C021E030E00023F6
:102C800011F02F5F3F4F112329F0812F90E0019623
:102C9000280F391F8F2D90E02817390714F4F21AE6
:102CA00001C0FF244E2C5524C201897090700097FA
:102CB00049F406C080E290E0B6010E94D71BFA9466
:102CC000FF20C1F7002329F0802F90E0B6010E9479
:102CD000D71B43FC09C006C080E390E0B6010E9408
:102CE000D71BFA94FF20C1F7E7FE46C03501B7FEB7
:102CF00002C06624772425010894411C511C461803
:102D00005708420C531CF501E919F1094F01812FB5
:102D100090E000271127081B190BFFEF6F16FFEF3C
:102D20007F0629F48EE290E0B6010E94D71BA6141C
:102D3000B70434F0861497041CF4F201808101C0BA
:102D400080E30894610871080894411C511C6016C6
:102D500071062CF090E0B6010E94D71BDECF6A14FA
:102D60007B0441F49A81963320F4953319F4F88961
:102D7000F4FF81E390E049C08A81813311F02FEEA6
:102D8000622290E0B6010E94D71B112389F08EE2E7
:102D900090E0B6010E94D71B02E0F101E00FF11DA7
:102DA0000F5F808190E0B6010E94D71B1150A9F7F8
:102DB00044FE03C085E490E002C085E690E0B601E1
:102DC0000E94D71BB7FC05C0A114B10441F464FEF6
:102DD00006C0B094A194B108B3948DE201C08BE217
:102DE00090E0B6010E94D71B80E305C08F5FE6EF3D
:102DF000FFEFAE0EBF1EFAE0AF16B104BCF790E0D5
:102E0000B6010E94D71BC501C096B6010E94D71B10
:102E10004DC1833631F0833789F0833509F059C0CD
:102E200022C09A012E5F3F4F3D872C87FA01808197
:102E30008983310181E0A82EB12C13C09A012E5F45
:102E40003F4F3D872C87FA016080718006FF03C0E9
:102E5000612F70E002C06FEF7FEFC3010E94CC1BB7
:102E60005C010F7714C09A012E5F3F4F3D872C877E
:102E7000FA016080718006FF03C0612F70E002C01C
:102E80006FEF7FEFC3010E94C11B5C01006803FD6F
:102E90001CC006C080E290E0B6010E94D71BFA94E5
:102EA0008F2D90E0A816B906A8F30FC0F30107FD17
:102EB000859107FF81913F0190E0B6010E94D71BE9
:102EC000F110FA940894A108B108A114B10471F7A3
:102ED000EDC0843611F0893661F507FF0BC09A0109
:102EE0002C5F3F4F3D872C87FA0160817181828181
:102EF00093810CC09A012E5F3F4F3D872C87FA01CA
:102F000060817181882777FD8095982F0F7697FFD4
:102F100008C090958095709561957F4F8F4F9F4F1A
:102F20000068A1012AE030E00E94261C982E921829
:102F300041C0853721F40F7E2AE030E020C0097FB0
:102F40008F36A9F0803720F4883509F0B2C00BC065
:102F5000803721F0883709F0ACC001C0006104FF60
:102F600009C0046007C004FF08C0066006C028E06E
:102F700030E005C020E130E002C020E132E007FF90
:102F80000AC0CA0104969D878C87FA01608171810D
:102F90008281938109C0CA0102969D878C87FA01BC
:102FA0006081718180E090E0A1010E94261C982E32
:102FB00092180F7706FF09C00E7F911630F404FFB8
:102FC00006C002FD04C00F7E02C0E92C01C0E12E44
:102FD000802F90E004FF0CC0FE01E90DF11D20815F
:102FE000203311F4097E09C0E39402FF06C004C037
:102FF00086789070009709F0E394A02EBB2403FD1F
:1030000014C000FF0FC0EF1428F4192D1F0D1E1956
:10301000EF2C08C0192D06C080E290E0B6010E9496
:10302000D71BE394EF14C0F304C0EF1410F4FE18A0
:1030300001C0FF24A4FE0FC080E390E0B6010E940F
:10304000D71BA2FE1FC0A1FE03C088E590E010C000
:1030500088E790E00DC0C50186789070009791F0E8
:10306000A1FC02C080E201C08BE207FD8DE290E08E
:10307000B6010E94D71B06C080E390E0B6010E9413
:10308000D71B11509116C0F39A94F101E90DF11D6F
:10309000808190E0B6010E94D71B9920A9F706C055
:1030A00080E290E0B6010E94D71BFA94FF20C1F79E
:1030B00095CCF6012681378102C02FEF3FEFC90181
:1030C0006396E2E10C94BA1A5058BB27AA270ED097
:1030D00075C166D130F06BD120F031F49F3F11F40F
:1030E0001EF45BC10EF4E095E7FB51C1E92F77D1E7
:1030F00080F3BA17620773078407950718F071F415
:103100009EF58FC10EF4E0950B2EBA2FA02D0B016A
:10311000B90190010C01CA01A0011124FF27591B1C
:1031200099F0593F50F4503E68F11A16F040A22F22
:10313000232F342F4427585FF3CF46953795279593
:10314000A795F0405395C9F77EF41F16BA0B620B92
:10315000730B840BBAF09150A1F0FF0FBB1F661FD9
:10316000771F881FC2F70EC0BA0F621F731F841F1C
:1031700048F4879577956795B795F7959E3F08F042
:10318000B3CF9395880F08F09927EE0F9795879501
:103190000895D9D008F481E008950CD00FC107D16B
:1031A00040F0FED030F021F45F3F19F0F0C0511133
:1031B00039C1F3C014D198F39923C9F35523B1F35E
:1031C000951B550BBB27AA2762177307840738F096
:1031D0009F5F5F4F220F331F441FAA1FA9F333D0F5
:1031E0000E2E3AF0E0E830D091505040E695001CA9
:1031F000CAF729D0FE2F27D0660F771F881FBB1F65
:10320000261737074807AB07B0E809F0BB0B802D3E
:10321000BF01FF2793585F4F2AF09E3F510568F08A
:10322000B6C000C15F3FECF3983EDCF3869577951E
:103230006795B795F7959F5FC9F7880F911D96958C
:10324000879597F90895E1E0660F771F881FBB1FE8
:10325000621773078407BA0720F0621B730B840B95
:10326000BA0BEE1F88F7E095089504D06894B11169
:10327000D9C00895BCD088F09F5790F0B92F9927F6
:10328000B751A0F0D1F0660F771F881F991F1AF071
:10329000BA95C9F712C0B13081F0C3D0B1E008953A
:1032A000C0C0672F782F8827B85F39F0B93FCCF3BB
:1032B000869577956795B395D9F73EF49095809567
:1032C000709561957F4F8F4F9F4F0895E89409C087
:1032D00097FB3EF490958095709561957F4F8F4F49
:1032E0009F4F9923A9F0F92F96E9BB279395F6955F
:1032F000879577956795B795F111F8CFFAF4BB0FDD
:1033000011F460FF1BC06F5F7F4F8F4F9F4F16C040
:10331000882311F096E911C0772321F09EE8872FCA
:10332000762F05C0662371F096E8862F70E060E086
:103330002AF09A95660F771F881FDAF7880F9695FF
:10334000879597F90895990F0008550FAA0BE0E8A3
:10335000FEEF16161706E807F907C0F01216130657
:10336000E407F50798F0621B730B840B950B39F497
:103370000A2661F0232B242B252B21F408950A26FD
:1033800009F4A140A6958FEF811D811D089597F93D
:103390009F6780E870E060E008959FEF80EC0895FB
:1033A00000240A9416161706180609060895002424
:1033B0000A9412161306140605060895092E03949E
:1033C000000C11F4882352F0BB0F40F4BF2B11F412
:1033D00060FF04C06F5F7F4F8F4F9F4F089557FD71
:1033E0009058440F551F59F05F3F71F04795880F73
:1033F00097FB991F61F09F3F79F08795089512160A
:1034000013061406551FF2CF4695F1DF08C01616B5
:1034100017061806991FF1CF869571056105089466
:103420000895E894BB2766277727CB0197F908957D
:103430008ADF08F48FEF08950BD0C0CFB1DF28F0FA
:10344000B6DF18F0952309F0A2CFA7CF1124EACF59
:10345000C6DFA0F3959FD1F3950F50E0551F629FF3
:10346000F001729FBB27F00DB11D639FAA27F00DDD
:10347000B11DAA1F649F6627B00DA11D661F829F04
:103480002227B00DA11D621F739FB00DA11D621FE9
:10349000839FA00D611D221F749F3327A00D611D06
:1034A000231F849F600D211D822F762F6A2F1124E8
:1034B0009F5750408AF0E1F088234AF0EE0FFF1F3B
:1034C000BB1F661F771F881F91505040A9F79E3F72
:1034D000510570F05CCFA6CF5F3FECF3983EDCF374
:1034E000869577956795B795F795E7959F5FC1F7AF
:1034F000FE2B880F911D9695879597F90895991B36
:1035000079E004C0991F961708F0961B881F7A95DA
:10351000C9F78095089597FB092E07260AD077FDF5
:1035200004D043D006D000201AF4709561957F4FE7
:103530000895F6F7909581959F4F08952F923F92A9
:103540004F925F926F927F928F929F92AF92BF92B3
:10355000CF92DF92EF92FF920F931F93CF93DF935F
:10356000CDB7DEB7CA1BDB0B0FB6F894DEBF0FBEBC
:10357000CDBF09942A88398848885F846E847D8409
:103580008C849B84AA84B984C884DF80EE80FD800B
:103590000C811B81AA81B981CE0FD11D0FB6F89481
:1035A000DEBF0FBECDBFED010895AA1BBB1B51E1CD
:1035B00007C0AA1FBB1FA617B70710F0A61BB70BA3
:1035C000881F991F5A95A9F780959095BC01CD0148
:1035D0000895283008F027E03327DA01990F311DCC
:1035E00087FD916000966105710539F432602E5FA8
:1035F0003D9330E32A95E1F708959F3F30F08038FE
:103600007105610509F03C5F3C5F3D93913008F026
:103610008068911DDF93CF931F930F93FF92EF92DA
:10362000192F987F9695E92F96959695E90FFF2784
:10363000E653FF4F99273327EE24FF24A701E70124
:1036400005900894079428F4360FE71EF81E491FCA
:10365000511D660F771F881F991F0694A1F70590CB
:10366000079428F4E70EF81E491F561FC11D770F57
:10367000881F991F661F0694A1F70590079428F4E8
:10368000F80E491F561FC71FD11D880F991F661FAF
:10369000771F0694A1F70590079420F4490F561F51
:1036A000C71FD81F990F661F771F881F0694A9F799
:1036B00084911095177041F0D695C7955795479509
:1036C000F794E7941A95C1F7E0E7F0E06894159055
:1036D000159135916591959105907FE27395E1186B
:1036E000F10A430B560BC90BD009C0F7E10CF11ED0
:1036F000431F561FC91FD01D7EF4703311F48A95E5
:10370000E6CFE894015030F0080F0AF400270217C2
:1037100008F4202F2395022F7A3328F079E37D9344
:103720002A95E9F710C07D932A9589F60694979516
:103730006795379517951794E118F10A430B560BC7
:10374000C90BD00998F023957E9173957A3308F0D0
:1037500070E37C932013B8F77E9170617D9330F015
:10376000839571E37D9370E32A95E1F71124EF903F
:10377000FF900F911F91CF91DF91992787FD909531
:103780000895FC010590615070400110D8F78095B4
:1037900090958E0F9F1F0895FC016150704001901D
:1037A0000110D8F7809590958E0F9F1F08950F9365
:1037B0001F93CF93DF938C01EB018B8181FF1BC0A3
:1037C00082FF0DC02E813F818C819D812817390792
:1037D00064F4E881F9810193F983E88306C0E88500
:1037E000F985802F0995009731F48E819F8101968C
:1037F0009F838E8302C00FEF1FEFC801DF91CF912F
:103800001F910F910895AEE0B0E0E9E0FCE10C9467
:10381000AC1A0D891E8986E08C831A8309838FEF89
:103820009FE79E838D839E01275E3F4FCE010196C9
:103830006F89788DA9010E94DE14EF81F885E00F71
:10384000F11F10822E96E4E00C94C81AFA01AA2700
:10385000283051F1203181F1E8946F936E7F6E5FD3
:103860007F4F8F4F9F4FAF4FB1E03ED0B4E03CD081
:10387000670F781F891F9A1FA11D680F791F8A1F64
:10388000911DA11D6A0F711D811D911DA11D20D0CB
:1038900009F468943F912AE0269F11243019305D85
:1038A0003193DEF6CF010895462F4770405D419376
:1038B000B3E00FD0C9F7F6CF462F4F70405D4A33C3
:1038C00018F0495D31FD4052419302D0A9F7EACF8B
:1038D000B4E0A6959795879577956795BA95C9F7BA
:1038E00000976105710508959B01AC010A2E0694AD
:1038F0005795479537952795BA95C9F7620F731F66
:0C390000841F951FA01D0895F894FFCFB0
:10390C0030303A30300030302E3000432C005248EA
:10391C003D38382E382500253032642F253032645E
:10392C002F253032642C0025303264002530342EA3
:10393C0031660052483D002025332E3066002500AC
:10394C00436F6E6665726D693F2053692F4E6F0031
:10395C003A0020007072696E74656400726561646F
:10396C003A202530352E3166007072696E74696E9E
:10397C00673A0025356C78202D202564002D002514
:10398C003032642F253032642F2530326400456488
:10399C006974696E6720646174653A00253032641D
:1039AC003A253032643A25303264004564697469D2
:1039BC006E672074696D653A0052483D202530329F
:1039CC006400456469742048756D2D4F6E20544811
:1039DC003A00456469742048756D2D416C2054483B
:1039EC003A00010000000000000000000000000090
:1039FC000000312E536F676C696120312D444555A1
:103A0C004D00322E536F676C696120322D414C4C46
:103A1C002000332E4461746120202020202020209F
:103A2C002000342E4F7261202020202020202020C6
:103A3C002000352E68656C6C6F2020202020202003
:103A4C000000362E776F726C6420202020202020FE
:103A5C002000372E6369616F202020202020202039
:103A6C00200020202020202020202020202020206A
:103A7C0000001F1D1F1E1F1E1F1F1E1F1E1FCDCC33
:023A8C003642C0
:00000001FF
